:020000040800F2
:10000000180600209D2F0008E92F0008EB2F00089C
:1000100000000000000000000000000000000000E0
:10002000000000000000000000000000ED2F0008AC
:100030000000000000000000EF2F0008F12F000872
:10004000000000000000000000000000F32F000886
:10005000F32F0008F32F0008F32F0008F32F0008F8
:100060000000000000000000000000000000000090
:10007000F32F000849310008F32F000800000000AA
:1000800000000000ED30000800000000000000004B
:1000900000000000F32F000800000000F32F00080C
:1000A00000000000F32F000800000000F32F0008FC
:1000B0000000000000000000000000000000000040
:1000C00000F002F800F03EF812A030C808382418FA
:1000D0002D18AC4201D100F035F80FCCA246AB464A
:1000E0000CA730CF2D1B083F3F197C427F1E544484
:1000F0002D090426F441641EAC4201D300F022F81D
:100100000126334200D0FB1A3343984754465D46DC
:10011000DFE700004446000054460000704700003E
:100120000023002400250026103A01D378C1FBD813
:10013000520700D330C100D50B6070471FB51FBDFB
:1001400010B510BD02F09FFF1146FFF7F7FF03F057
:100150001BF902F0B7FF03B4FFF7F2FF03BC02F094
:10016000BDFF00007047000009000000040B000004
:10017000140D00004011000018170000D41A0000F0
:10018000441C0000F8260000842B0000E42D000031
:100190003FFFEDDDCDBFB1A5998F857B736B635CB0
:1001A00056504A45403C3834302D2A2724211F1D03
:1001B0001B191716141311100F0E0D0C0B0A0A0938
:1001C00008080707060605050504040404030303DD
:1001D000033FFFE6CFBEAFA399918A837C76706B15
:1001E00065605C57534E4B4743403D3A3734312F9F
:1001F0002D2A28262423211F1E1C1B19181716150B
:1002000014131211100F0E0E0D0C0C0B0B0A0A0911
:100210000908FFFFF5EBE2D9D0C8C0B6A798908FC8
:100220009497968D7B696165717D80796A5C565A79
:100230006672767062554F535E696D675B4F494DCC
:100240005761645F5448444750595D584D433E429E
:100250004A535551473E393C444C4F4B423935384F
:100260003F4649453D3531333A41434038302D30E2
:10027000363C3E3B342D2A2C32373936302926285D
:100280002E3335322C2623252A2F312E29232122C5
:10029000272B2D2B25201E2024282927231E1C1D1B
:1002A00021252624201C1A1B1F2223211D19181961
:1002B0001C1F211F1B1816171A1D1E1C191614159A
:1002C000181B1C1A1714131416191A1815121112C8
:1002D00014171816141110111315161512100F0FEC
:1002E00011131413110F0E0E101213120F0D0C0D0B
:1002F0000F1111100E0C0C0C0E0F100F0D0B0B0B21
:100300000D0E0F0E0C0B0A0A0C0D0D0D0B0A090A2F
:100310000B0C0C3FFFF6B273DED69B64C1BB875754
:10032000A8A3764C938E6742807B593A6F6B4E320E
:10033000615E442C54513B2649473321403E2D1DDC
:1003400038362719302F22162A291E1325241A1170
:10035000201F160EFFFFF7F0E9E2DBD4CEC4B4ABEA
:10036000ADB5B7AB978C92A1A79C8A8086949A91E1
:1003700080777D8B9088787076838981726B717DB0
:10038000837E716560646F7A7E786A5C565B6874A0
:100390007973665953586470746E62555054606B2B
:1003A000706A5E524D515C676B665A4F4A4E586395
:1003B0006762574B474B555F635E53484448525BF7
:1003C0005F5A504641454E585B574D433F424B5450
:1003D00058534A403C4048515450473E3A3D454EA0
:1003E000514D443B383B434B4E4A413935384048E8
:1003F0004B473F3733363E4548443C3531343B422A
:1004000045423A332F323940423F38312D30373D63
:10041000403D362F2C2E343B3D3A332D2A2C32389A
:100420003B38312B282B303638362F2927292F34CB
:1004300036342E2825272D3234322C2624262B30F4
:1004400032302A252224292E302E28232123282C1D
:100450002E2C272220807870686059524B443E39F8
:1004600034302C2926252323232425272A2D3034F4
:10047000383D42474C51575C61666B7074787B7EA7
:100480008183848585858483807E7B77736E6963B1
:100490005E58514B443E37312B251F1A15110C095C
:1004A000060402010101020306090C10151A202698
:1004B0002D343B424A515961686F767D848A90950C
:1004C0009A9EA2A5A7A9AAABAAAAA9A7A5A29F9BE3
:1004D00097938E8A85807B76726D6965615E5B59C4
:1004E000575656555657595B5E62666B70767C83DD
:1004F0008A91989FA7AFB6BEC5CCD3DAE0E6EBF001
:10050000F4F7FAFDFEFFFFFFFEFCFAF7F4EFEBE66F
:10051000E1DBD5CFC9C2BCB5AFA8A29D97928D89AA
:100520008582807D7C7B7B7B7C7D7F8285888C90B7
:10053000959A9FA4A9AFB4B9BEC3C8CCD0D3D6D91D
:10054000DBDCDDDDDDDBDAD7D4D0CCC7C2BCB5AEB9
:10055000A7A0989088808A949EA7B1BAC2CAD2D91F
:10056000E0E6EBF0F4F7FAFCFDFEFFFFFEFDFCFA1F
:10057000F8F6F4F2EFEDEBE8E6E4E3E1E0DFDFDEEE
:10058000DEDEDFE0E1E2E3E5E6E8EAEBEDEFF0F204
:10059000F3F4F5F5F6F6F6F5F5F4F3F2F0EFEDEB2E
:1005A000EAE8E6E5E3E2E1E0DFDEDEDEDFDFE0E130
:1005B000E3E4E6E8EBEDEFF2F4F6F8FAFCFDFEFF1B
:1005C000FFFEFDFCFAF7F4F0EBE6E0D9D2CAC2BABE
:1005D000B1A79E948A80766C62594F463E362E278C
:1005E000201A15100C090604030201010203040677
:1005F000080A0C0E111315181A1C1D1F2021212288
:10060000222221201F1E1D1B1A1816151311100E51
:100610000D0C0B0B0A0A0A0B0B0C0D0E1011131507
:1006200016181A1B1D1E1F20212222222121201FE5
:100630001D1C1A181513110E0C0A080604030201DA
:100640000102030406090C10151A20272E363E4617
:100650004F59626C768093A5B6C7D5E2EDF5FBFEE7
:10066000FFFFFCF7F2EBE3DCD5CEC8C3BFBDBCBDDA
:10067000BFC2C6CCD1D7DDE2E7EAECEDECE9E4DEBF
:10068000D6CDC2B7ACA0958B827A74706E6E71763F
:100690007D858F9BA7B3C0CCD7E1E9EFF4F6F6F3E5
:1006A000EFE8DFD5CABEB2A5998E837A726C686511
:1006B000646567696D7175797C7F80807F7C7872F5
:1006C0006B635950463C332B241F1C1B1C1F252DCC
:1006D00037435160708090A0AFBDC9D3DBE1E4E542
:1006E000E4E1DCD5CDC4BAB0A79D958E8884818025
:1006F000808184878B8F9397999B9C9B98948E86FF
:100700007D72675B4E42362B2118110D0A0A0C11BF
:10071000171F2934404D5965717B838A8F929290BF
:100720008C867E756B6054493E332A221C17141345
:100730001416191E23292F343A3E41434443413DA8
:1007400038322B241D150E0904010002050B131E5F
:100750002B394A5B6D80818486898C8F93969A9E13
:10076000A2A6A9ADB1B4B7B9BCBEBFC0C0C0C0BF1E
:10077000BDBBB9B6B3B0ACA8A4A09C9894908D8929
:1007800087848281808080818284878B8F93989EEA
:10079000A3A9B0B6BDC4CBD1D7DEE3E9EEF2F6F93A
:1007A000FBFDFFFFFFFEFCFAF7F3EFEBE6E1DBD525
:1007B000CFC9C2BCB6B0AAA49F9A96928E8B8885E8
:1007C0008382818080808080808182828383848410
:1007D0008484838281807F7C7A7774716D6A66629B
:1007E0005E5A57534F4C4947444241404040404174
:1007F0004345474A4D5054585C6064686C70737749
:10080000797C7E7F8080807F7E7C7975716D686267
:100810005D57504A433C352F29221D17120E0A07F7
:100820000503010101020406090D11151A1F252BEC
:1008300031373E444A50565C61666A6E7275787B09
:100840007D7E7F8080808080807F7E7E7D7D7C7CC1
:100850007C7C7D7E7F00000039341C350009100C43
:10086000100C100C1009410049341C0C13091C0910
:100870001A091809170918091D0C54341D0C49349C
:100880001D0C530C1C0C14091C091A091809170912
:1008900018091A0C54341A0C49341A0E5B091C0C32
:1008A00013091C091A09180917091809210C5434CD
:1008B000210C4934210C1F091D091C0C1A091809A7
:1008C000150C4034170C39203C301810130C08302C
:1008D00018112300180C17091509110C1309150913
:1008E000170C15091309100C11091309150C170918
:1008F00018091A0C49341C091D091F0C8D362309CF
:1009000021091F0E7F3640341D091C0C1A091809D5
:10091000150C49341709180954341C091A09180907
:100920001709140C493415091709180C8D361A09C2
:100930001C091D0C240F9F36230C3D000039690053
:10094000240C230921091F0C1E091F09210C1D0954
:100950001C091A0C403419091A091D0C19091A0925
:100960001D0C493419091A091D0C19091A09240901
:10097000210940341F091D090039EC0149341C0CC0
:1009800013091C091A091809170918091D0C5434F0
:100990001D0C49341D0C530C1C0C14091C091A099C
:1009A0001809170918091A0C54341A0C49341A0C6E
:1009B0009A091B091C0C13091C091A0918091709A3
:1009C0001809210C5434210C4934210C2309240921
:1009D0002909260C2409220920091A0B610621097C
:1009E0001F0C1C091A091809130B54061D091A0CAF
:1009F0001809160914090E0B5506150C13091009D0
:100A00000E098D360C09070B48067F3609090409C3
:100A1000050907090909110910090E090C09080936
:100A200009090B090C0918091709150913090B09FC
:100A30000E098D360C090B09B6361309130E100971
:100A40008D36100C0E0C090C40340B0C7F364934DB
:100A50000C1010091309140C150C160C4034170C4B
:100A600018101C091F09200C8D36210C220CB636DB
:100A70003934230C240FD436240C240CFF362411D3
:100A800000003A341C350C09130C13090C09130C23
:100A9000130941000C09130C13091009130C130955
:100AA0000E09150C15090B09130C13090C09130970
:100AB0000B0914090909150C15090E09120C120964
:100AC0000B09130C13090C09130C13091009130C4F
:100AD000130911091509100915090E09150C150935
:100AE0000709130C13090709130C130937203E30AB
:100AF0000C0C0E0C8D360F0C0E0C7F3609300C09C9
:100B0000130C13098D360E0C33340F0C7F36070986
:100B1000130C130C130C13090709130C130C130CEF
:100B200013093A340709130C130C130C1309100C96
:100B30000F0C0E0C070C0C09130C13090C09150CE7
:100B4000150942340B09110C11090B09100C10097D
:100B50003A340409100C1009040F100F7F360709EE
:100B6000100C10090709110C11090709100C1009C4
:100B70000709110C11090809110C11090709110CB9
:100B800011091409110C11098D36070C130C7F364D
:100B90000C09130C13091009130C13090E09150C79
:100BA00015090B09130C13090C0913090B09140976
:100BB0000909150C15090E09120C12090B09130C61
:100BC00013090C09130C13091009130C130911094B
:100BD0001509100915090E091509000C33341109FE
:100BE0001109110911091109110913091109100934
:100BF00010091009100910091009100C1109110928
:100C00001109110911091109130911091009100914
:100C100010091009100C3A34040C050C040C020FD6
:100C2000090C070C060F050C040C020C010F020F37
:100C3000070F0009070C070904090C0C0C0905092A
:100C40000C0C0C09070F0C09130C13091009180CD4
:100C500018091109180C1809130F0C0F2D3400096D
:100C60000709000907090411000000000000000046
:100C700062010502F0060000ED040000150000000E
:100C8000EC01000000000000000000001A09000054
:100C9000ED040000140000006900000000000000E6
:100CA000000000003F341C351F0C1F091F091F0CDA
:100CB0001F091F094C341F0C1F091F091F0C40344A
:100CC0001F0C41001F0C1C0961091F0C1C0C1F0C80
:100CD0001C0921091F0C24092609280E24092611A4
:100CE0001F0C1C0961091F0C1C0C1F0C1C0921097D
:100CF0001F0C24092809260E28092D203130241123
:100D000000396900103024100039EC01000C513416
:100D1000280E69092B0C280C280C26096409260FBB
:100D2000280E69092B0C280C280C26096409260FAB
:100D300040341F0C1C0961091F0C1C0C1F0C1C09E2
:100D400061091F0C24092809260E28092411000F07
:100D500000003D341C35130C000C130C000C4C34FB
:100D6000130C120C110C39340E0C41000C09130930
:100D7000100913090C091309100913090C091309A7
:100D8000100913090C0913091009863613090C09F7
:100D9000130910097F3613090709130912091309EA
:100DA000110913090E0913090C0913091009130974
:100DB0000C091309100913090C0913091009130967
:100DC0000C091309100986361309070913091709B5
:100DD0007F36130943204C300C09130910091309FD
:100DE000110913090E0913090D300C091309100913
:100DF0001309070913091109130948340C09163599
:100E00001309130913090C091309130913090C0910
:100E10001309130913090B091309130913090C0901
:100E20001309130913090909100910091009050903
:100E30000C090C090C0907091109393411091109A8
:100E40001C350C091309100913090C0913091009A1
:100E500013090C091309100913090C098636130923
:100E600010091309070913091709B63613090C09E4
:100E7000130910091309D4360C11000000000000FA
:100E8000520101023C0B0000ED04000015000000BF
:100E9000EC0100000000000000000000EA0B000070
:100EA000ED040000130000006900000000000000D5
:100EB0000000000033341E35180C170C150C130CF1
:100EC00012091A091E0C15091A091E0C1109180914
:100ED0001D0C150918091D0C13091A091F0C170FF1
:100EE000180E1809180C130C180E1809180F4100C9
:100EF00018091C0918091C09180C110C18091C09DF
:100F00001F091C0918091C091F091C0918091C09BB
:100F10001F091C0918091C091F091C0913091A09B2
:100F20001F091A0913091A091F091A0918091C09A6
:100F30001F091C09180C110C18091C091F091C0990
:100F400018091C091F09170915091C0921091C0981
:100F5000100917091C09170915091C0921091C0981
:100F6000863613091A098D361F091A097F361809A2
:100F70001C091F091C09180C110C18091C091F0950
:100F80001C0918091C091F091C0918091C091F093B
:100F90001C0918091C091F091C0913091A091F0932
:100FA0001A0913091A091F091A0918091C091F0926
:100FB0001C09180C110C18091C091F091C09180917
:100FC0001C091F091C09110918091D091809130C0E
:100FD000130C9120B43018091C091F091C09180FA3
:100FE0001D092109240921091D09210924092109B3
:100FF00018091C092B091C0918091C092B091C09B3
:101000001A091E0921091E091A091E0921091E09AA
:1010100013091A091F091A09130F1E3018091C0990
:101020001F091C09180F180C170C150C130C1209AA
:101030001A091E0C15091A091E0C110918091D0C94
:10104000150918091D0C13091A091F0C17091A098B
:101050001F0C18091C091F0C8D3618091C09B636FF
:101060001F0CFF361811000033341E35180E1A09F4
:101070001C091F0924092809260F210C210923090D
:10108000240C210C1F0C1D0C1C0C1B0C1A0F00092E
:101090001009130918091C09180913091009000976
:1010A00010091309180918031C085C0E41000039C7
:1010B00069000038ED021F0F2409280929092D09AC
:1010C000280F240F1F0F24092909280924090009C2
:1010D0001F092B091F0929091F0926091F091F0FAD
:1010E0002409280929092D09280F240F1C0F2C0970
:1010F000260926092609240F260F280F280C290C5B
:10110000280F240F1C0F2B0928092809280900097A
:101110001F092B091F0929091F0926091F091F0F6C
:101120002409280929092D09280F240F1D0F280932
:10113000240923092309692089301F0F0039EC0194
:101140000038ED04000918091C091F0924092309A6
:1011500024092609240E21091F091E091F09210936
:101160001F0E1C091A0C1E0921092609240923092E
:101170002109230C210C1F0F23301F110039EC0112
:101180000038ED04180E1A091C091F092409280942
:10119000260F210C21092309240C210C1F0C1D0CE6
:1011A0001C0F1C0F181100031C031F031803640EEF
:1011B000640F000033341E351F0C1F0C180C1F0C5D
:1011C000210F1D0F210C1D0C180C180C230F1F0FC5
:1011D00018111C0F1F0F41000039EC010038ED04FD
:1011E000240E260928092B092D0930092B0F280F59
:1011F000240E260928092D092B0928092611240E59
:10120000260928092B092D0930092B0F280F300E2C
:1012100030092F092809280928092D0F2F0F300E12
:101220002F09320930092F092D092B0F280F300EF5
:101230002F09320930092B0928092611240E260905
:1012400028092B092D0930092B0F280F2D0E2F09E6
:101250003009280926092809542061302411003951
:1012600069000038ED02210F210F180F180F210F10
:10127000210F1D1112301811003969000038ED02DC
:101280001F0C1F0C1C0C1C0C210F1E0F210C1D0C05
:10129000180C180C230F230F1C1110031303180331
:1012A0001C035C0E5C0F0000000000005A010003EC
:1012B0004C0D0000ED020000150000006900000068
:1012C0000000000000000000000F0000ED0400001E
:1012D00015000000EC01000000000000000000000C
:1012E0004C100000ED020000150000006900000035
:1012F000000000000000000030340E3500091C0919
:101300001A0918091A09180913091C35150955096C
:101310000E351A091C351A065C065A065C061A0FA9
:1013200000090E351C091A0918091A0918091309A8
:101330001C35150955090E351A091C351A065C06A7
:101340005A065C061A0F0039AB01000C26341C0942
:101350001F0921091F091C091A095A091C061A0626
:101360001810000918091A0918091C091A0918097E
:10137000180958091A061C065C10000C1C091F09E4
:1013800021091F091C091A095A091C061A061810F6
:10139000000918091A0918091C091A091809180955
:1013A000580C2B3400090039EC01180918091C09E4
:1013B0001F0930341F095F0F5F0921091C061A0934
:1013C0001806580E180918091C091F091F095F0F74
:1013D0005F0921091C061A091806580E2B3400391A
:1013E0006900240921091F091C09180926340E3532
:1013F0001A0C1C0C2B341E0C210930341C351A0914
:101400005A090E351A091C0C34341E0C0039EC0133
:101410009A091C3561093934210F61092409210910
:101420001F09303400090039AB011C091C095A0995
:10143000180C1C0C410021091F0F180918091C0960
:1014400021091F095F0F1C091F09240C2409210C05
:101450001C0C1F095F101C091F09240C2609240CF1
:10146000200E1F0C2309210C1C0EBB20CA301A0FA2
:101470002109240921061F0639341F0930340009C7
:101480001C091C095A09180C1C0C9F301A0F210C3E
:101490001F0C1F0C210C2B341C0C1A0C26341A099F
:1014A000180958100039690000090E350038ED059B
:1014B0001309150917092B3418091A091C091D09E4
:1014C00030340009280926092409260924091F099E
:1014D0001C35210961090E3526091C3526066806CA
:1014E00066066806260F00090E3528092609240914
:1014F000260924091F091C35210961090E35260911
:101500001C352606680666066806260E2606280688
:10151000240F000F000030340E35180E130E100C7F
:10152000110E130E15091709180E130E100C110EBB
:10153000130C263400090038ED0415091709180E9C
:101540001809180F110E110C1309150C130E13099D
:10155000130F100E13091809150913091009180E95
:101560001809180F110E110C1309150C130E13097D
:10157000130F100E2B341309130F3034000C1C35CD
:101580001C0C0E351C091C355C0E0E351509150991
:1015900015091C351509550F000C1C0C0E351C09BE
:1015A0001C355C0E0E351509150915092B341C3533
:1015B0001509550F26340E350E0C100C2B34120C59
:1015C000150930341C350E094E090E350E09100C64
:1015D0003434120C1C358E0915093934110F510998
:1015E000150911090E351309303400114100180E88
:1015F000130E130C100E170E13091709150E100EEB
:10160000100C170E100E13091709150E110E0C0CE5
:101610001009130917091C350D094D0F0E358620C9
:1016200093300009150911090E0911091509180649
:10163000570639341709303400116C300009150988
:1016400011090E09110915091A09180900091709C4
:101650000009170900092B34130915091709263445
:1016600000091009130910091309100911091509B6
:1016700013091009110913092B3415091709180941
:101680001A093034180E130E100C110E130E150912
:101690001709180E130E100C110E130E1509170949
:1016A0001811000021340E35130E100E0C0C150EFF
:1016B000170E11091309130E100E0C0C150E170C32
:1016C000263400090038ED0411091309130E13091B
:1016D000130F150E150C1109110C00091C351509F5
:1016E00015091509180915091509150955091306CC
:1016F000180658100E35130E1309130F150E150C7E
:101700001109110C00091C351509150915091809CD
:10171000150915091309530C2B3400090039AA00C7
:10172000100910091309170930341709570F570901
:101730001809130611091006500E10091009130993
:1017400017091709570F5709180913061109100629
:10175000500C00092B34003969001C0918091709BD
:101760001309100926340E35150C150C2B34150EE3
:1017700030341C35150955090E351509150C34344E
:10178000150F39341C35180F58091D091809170988
:101790003034001141001C091C091C0918091809E2
:1017A0001809130913091709170917091C091C0936
:1017B0001C0917091009150918091C091809150928
:1017C0001809150C100913091709130917091C0921
:1017D0001709100900091C3511091D090E351D0CCA
:1017E0001D091D091D0900091C3510091C090E35AC
:1017F0001C090009150915091509AD20BA300009A1
:1018000015091509150918091D091D061D06393484
:101810001D09303400117930000915091509150921
:10182000150918091D09000900091A0900091A09F2
:101830002B340009130911090E0926340009130974
:101840001809130918092B341309150918091C0C58
:10185000000E0038ED051309130913093034130E77
:10186000100E0C0C150E170E11091309130E100E85
:101870000C0C150E170E11091309101100000000B1
:10188000000000001401060390110000ED040000A8
:1018900014000000690000000000000000000000CB
:1018A000AE130000ED02000015000000690000000A
:1018B00000000000000000003C150000ED050000E5
:1018C000150000006900000000000000000000009A
:1018D00030341C351F0E21091F091C091A0918096B
:1018E000240F210E61082303210C1F0C1C0E180964
:1018F0001A091F091D0921091F091A091C091D09B7
:101900001F0E21091F091C091A091809240F210F8C
:101910002D092B0928092409290328086809260C00
:1019200024091F091C091F09240F0039EC0141007B
:101930001F0E21091F091C091A091809240F210F5C
:101940001F0C1C0C1C0E18091A111F0E21091F094F
:101950001C091A091809240F210F21091F091C0944
:1019600018091C0C1A0C181139340039AB01240F5A
:10197000230C210C1F0F1C0F3034210C1F0C1C0CCE
:10198000180C1A10000C0039EC011F0E21091F0958
:101990001C091A091809240F210F6E2021091F099B
:1019A0001C0918091C0C1A0C1811000021091F0928
:1019B0001C0918091C0C1A0C1810000C303030349B
:1019C0001C350C091309100913090C091309100916
:1019D00013090C091509110915090C091509110933
:1019E00015090C091309100913090C091309100929
:1019F0001309070F130C130C0C0913091009130911
:101A00000C091309100913090C0915091109150905
:101A10000C091509110915090C09130910091309F5
:101A2000070913090E0913090C10000C0038ED0406
:101A300041000C091309100913090C0913091009B5
:101A400013090C091509110915090C0915091109C2
:101A500015090C091309100913090C0913091009B8
:101A60001309070F130C130C0C09130910091309A0
:101A70000C091309100913090C0915091109150995
:101A80000C091509110915090C090E09100911098C
:101A9000130C070C0C0F100C130C39340C09130920
:101AA00010091309070913090C0915090C09130971
:101AB000100913090C091309100913093034120C09
:101AC000130C150C140C130F070C070C0C0913093D
:101AD000100913090C091309100913090C09150938
:101AE000110915090C09150911091509A7200C0977
:101AF000130910091309070913098D360E09130973
:101B00009F360C0C130CD436180F00000C09130967
:101B100010091309070913090E0913090C0C130CFA
:101B2000180F3A3021341C351F0E21091F091C09DA
:101B30001A0918091D11180C180C180F13091F0980
:101B40001D0921091F091A091C091D091F0E210958
:101B50001F091C091A0918091D112D092B0928092B
:101B600024091F0C1D0C1C091F091C091F09240F27
:101B70000038ED0241001F0E21091F091C091A0936
:101B800018091D111F0C1C0C1C0E18091A09130929
:101B90001509170918091A091C091D091F0E210921
:101BA0001F091C091A0918091D11180C000E1C091F
:101BB00000091A09000918091C091F0921091F0930
:101BC0002809260925341F0F1F0C1D0C1C0F180F88
:101BD000213421092D091F092B091C09280918097D
:101BE00024091A092B092F092D092B09290928096C
:101BF00026090038ED041F0E21091F091C091A09C6
:101C000018091D117D2021091F091C091809000947
:101C1000280900092609000C1C0C280F00002109C6
:101C20001F091C0918090009280900092609000CC8
:101C30001C0C280F0038ED022930000000000000C5
:101C40007E01FF0368170000ED040000150000008E
:101C5000AA0000000000000000000000561800006C
:101C6000ED02000014000000690000000000000008
:101C700000000000BC190000ED0500001500000088
:101C8000AA000000000000000000000043343235CC
:101C90002B0C2B092909280F240C24092309210FB7
:101CA000241154344100280C28092609280F260C39
:101CB00026092409260F240C2609240921092109B3
:101CC0002109210924092409210921091F0F210CB7
:101CD000240921091F091F091F091F0921092109B9
:101CE0001F091F091C0F1F091F092409240928099E
:101CF000280926092409260C26092809240F0D2065
:101D0000240F210F26110000393432351C0C1C0918
:101D10001A09180F150C15091309120F1B0F180FAC
:101D20004534180C18091709180F170C170915094D
:101D3000170F150F110F120F170F110F170F180C88
:101D4000170C180F1C0F1E0F1D0C1D091F091C0C52
:101D5000130C180913091809170918091309180C85
:101D6000170913091709150917091309170C15097C
:101D700011091509180911091509180C1209150975
:101D80001A0C130917091A0C11091509180C100956
:101D90001309170C180C170C180F1C0F1F0C1E0C16
:101DA0001D0F1C0F1B0F1B0F1C110000000000005B
:101DB0002A010202241B0000ED02000018000000AE
:101DC000280000000000000000000000A01B000030
:101DD000ED020000180000002800000000000000D4
:101DE0000000000030341E35280C28092909280C71
:101DF00028092909280C28092909280C280C290C4C
:101E000029092B09290C29092B09290C2909280939
:101E1000260C0039AA00280926062406640E34344C
:101E200024092409260928092909280E2909260632
:101E30002409260B23062306240C0006210621066E
:101E40002306240C24092609280923062306630FE8
:101E5000240923062106610E2D092B0929092809C9
:101E600029092B0E2409240C000929062806290C0F
:101E70000006290929062809260924092309260616
:101E8000240B64103934000C240923062406640C46
:101E90001C091D061F065F11000C210921092109DB
:101EA0001F091D0921091F091A061C065C101D0EB9
:101EB0001F061F065F0E1C091F0E21062106610F5B
:101EC000000C1D091F092109240900092406260602
:101ED00023092109230661061F095F0F000C24094D
:101EE000230924092306240B1C061F065F0F210962
:101EF0001F091D091C061D065D0E1D061D06200975
:101F0000200B1F061D0620061F11000C21092306A9
:101F1000240B2409240926062806680E2809290905
:101F20002809260624092806660C0006210923062E
:101F3000230C2307240726072609240624066410F9
:101F40003E34000C240923062406640C1C091D06DB
:101F50001F065F11000C2109210921091F091D0914
:101F600021091F091D061C065C0F5C091C091D09BF
:101F70001D091D091F061F065F0E1C091F0E2106E5
:101F80002106610F000C1D091F09210924092409DC
:101F9000260923092109230661061F095F0F000C8A
:101FA00024092306240B23091C091D0621066106AA
:101FB0001F0B5F0C21091F091D091C061D065D0E64
:101FC0001D092009200620091F061D0620061F11D5
:101FD000000C21092306240B2409240926062806BF
:101FE000680E280929092809260624092806660CEE
:101FF000000621092306230C2307240726072609A8
:1020000024062406640F00094734210621065100E6
:1020100029092809290626092306630C000621063A
:10202000230623062B0929092B0929062806680CF3
:102030000006280628062606240C0006210621068E
:102040002306240921092409280928092606260629
:10205000660F280926062406640E24092409260989
:1020600028092909280E290926062409260B2306F2
:102070002306240C0006210621062306240C24092D
:102080002609280923062306630F240923062106AF
:10209000610E2D092B092909280929092B0E24096C
:1020A000240C000929062806290C000629092906FE
:1020B00028092609240923096C25BE312606240B8C
:1020C000640F0038ED0500396900000734342B0730
:1020D0002907280E2406230B2406260B1F09210995
:1020E000240F2309240926092409210C2109240984
:1020F0001F062B0924061F09000B1A061C061D06C5
:102100001F0621061F091F06230924062606280686
:102110002B0C00092B062D062B0C00092B062D0677
:102120002D06301028092606240921062406640CF1
:102130001C091F065C061C065A0618091A0B1C0609
:102140001D061F062106240623091F06260900383E
:10215000ED0200060039AA00473421062106163197
:102160002606240B640F280926062406640E24097B
:102170002409260928092909280E290926062409DF
:10218000260B23062306240C00062106210623061F
:10219000240C24092609280923062306630F240991
:1021A00023062106610E2D092B0929092809290971
:1021B0002B0E2409240C000929062806290C0006E8
:1021C0002909290628092609240923092606240B9A
:1021D00064103E340039EC011F0E2306240B1F0C43
:1021E0002B09290928062906690F00092409290E47
:1021F0002909290928090009260624062409240991
:1022000024092409640F64113934003969001D0957
:102210001A06240B240923091F06240B2609263439
:1022200026062806680968106411000021341E354E
:102230000C091009130910090B090E0913090E09DD
:1022400009091009150910091809100915091009BB
:1022500005090C0915090C0904090C0915090C09D3
:1022600002090E091109150907090E09130C0C09B9
:1022700007090C090709100907090C0907090409CE
:102280000B0910090B0913090B0910090B0909099E
:10229000100909091009150910091509100904097F
:1022A0000B0910090B0913090B0910090B09050982
:1022B0000C0911090C0907090E0913090E09040973
:1022C0000B0913090B09090910091509100902095D
:1022D0000C0911090C0907090B0913090E090C094E
:1022E000130918091A091C0C070C41000C090709ED
:1022F0000C090709100907090C09070904090B094A
:1023000010090B0913090B0910090B090909100918
:1023100015091009180910091509100904090B09F4
:1023200010090B0913090B0910090B090509090903
:102330000E0C07090B090E09070904090B090E0CFD
:1023400009090C0910090909050909090C090909F4
:10235000110909091109090907090B090E090B09D6
:1023600010090B090E090B090C0907090C090709CB
:10237000100907090C09070904090B0910090B09C1
:1023800013090B0910090B09020909090E090909AA
:1023900005090C0911090C090C0907090C090709A1
:1023A000100907090C090B09090910091509100979
:1023B000180910091509100904090B0910090B095E
:1023C00013090B0910090B0902090909110C070966
:1023D0000E09130CD620DF300C09070910090C096F
:1023E000130910090C09070960300C0907090E09C7
:1023F000100C13090C0C26345100020909090E0CAB
:1024000007090E06130B050904090B09100C09092D
:102410001006150B070905090C091109050C0C0913
:102420000909050907090E0913090E091709130CF3
:1024300013090C0913091009180C130910090C09C8
:102440000B0913091009170C130910090B090909C5
:1024500010090C09150C10090C09090907091009C4
:102460000B09130C10090B09070905090C09110CBC
:1024700007090E09130C04090B09130C09091009AB
:10248000150C0E091509180C07090E09130C332534
:1024900079310C0907090E09100E2134070C0C09BB
:1024A0001309180913090B09130917091309090955
:1024B00010090C0910090709100913091009050969
:1024C0000C0911090C0904090C0910090C0902096D
:1024D0000909110C07090B090E0913090C09130945
:1024E000180913090B091309170913090909100918
:1024F00015091009070910091309100905090C0924
:1025000011090C0904090C0910090C09020909092F
:102510000E09090907090E09130C2634E7300C09C6
:1025200007090E09100C0C09070C0C0913091009F6
:10253000180C130910090C090B0913091009170CC1
:10254000130910090B09090910090C09150C1009C8
:102550000C090909070910090B09130C10090B09CB
:10256000070905090C09110C07090E0913091109BE
:1025700010090B09130C09091009180C1A0915097F
:102580000E0C070C130911090C0907090E09100993
:10259000130918091A091C0924340C09130918090C
:1025A0001309100913091809130911091509180944
:1025B0001D0C1809110910090E091509180C070935
:1025C0000E09130C05090C091109050C1109050C5C
:1025D00004090C091009040C1009040C0039EC0161
:1025E00002090E09110C8636070F1C340C09130959
:1025F0008D361A091C095C0F5C11000030341E3541
:1026000024091F09240C24091F09240C24091F096B
:10261000240C24091F0924091F0924092109240C59
:1026200024092109240C24092109240C230C170C4A
:102630000039AA00001100110011263400101F09F2
:102640001C061D061D0E2409230E21091F0E1F093D
:10265000210E2109210C0006210921061F091D094F
:102660001C091A091C0F240F0039EC010011000C81
:10267000170C1C0C170C180F1C0F170F1C0C170C29
:10268000150C180C170F170C1A0C180F150F180C27
:102690001D0C1C0F1A0C1F0C000C1C091A091C091C
:1026A0001A061C0B18061706570F000F000E15060A
:1026B00015061809180B180618061A061C1010091A
:1026C0000E090C10210C1F0F000F1D0C00061D0918
:1026D0001F061F0C1F071F071F071F091C061C06CC
:1026E0005C1021341C115C0C1C0C1F0C1C0C180FF2
:1026F0001C0F1C0F1F0C1C0C150C180C170F170CA3
:102700001A0C180F150F180C1D0C1C0F1A0C1F0C8F
:10271000000C1C091A061C0B1A09130915061806C9
:102720005806170B570C000F1A0F1D0F1C1010091D
:102730000E090C10210C1F0E1F091F091F091F0B6A
:102740001F065D0C00061D091F061F0C1F071F0733
:102750001F071F091C061C065C102B344100210CAE
:10276000000B1F065F0F230C000B2406640F210CC7
:10277000000621062106230624092109240921092E
:10278000230B2306630F1F0C0039EC011F111F11CF
:102790001C111F111D0E2409230E21091F0E1F09D4
:1027A000210E2109210C0006210921061F091D09FE
:1027B0001C091A09DE20F9301C112634240F000FE1
:1027C000180F00091F0921092309210F000F00110B
:1027D000280F1A0F18031C035C0B5C0F0006230B59
:1027E000210F000F00110039AA002B34B1301C1149
:1027F0000039AB011F0E1F095F0F1F0E1F095F0F6E
:102800001C0E1C095C0F1C0E1C095C0F1D0E2409FC
:10281000230E21091F0F210F210C0006210921067B
:102820001F091D091C091A091C110039AA000011F1
:1028300000112634210E210921091F0C1D09210E2A
:102840002109610F1F0E1F095F0F1D0B1D0B1C09B6
:102850001A0B1C0B1D091C341F115811000000001D
:1028600000000000880102037C1C0000ED02000053
:1028700015000000690000000000000000000000DA
:10288000C4200000ED0400001500000069000000F5
:10289000000000000000000094240000ED02000091
:1028A00015000000690000000000000000000000AA
:1028B00030341C35300F2F0C2D0C2B0C280C240C15
:1028C00024092609280F260E240924114100003965
:1028D0006900280F2609240928092609240C300C30
:1028E0002D09300E2B0F280C240C2611280F260939
:1028F000240928092609240C300C2D09300E2B0C34
:10290000280B2406260C260C240F0038ED0464093D
:102910001F092409260939342335280F26092409DB
:1029200028092609240C300C2D09300E2B0F280CF9
:10293000240C26113034280F2609240928092609D9
:10294000240C300C2D09300E2B0C280B2406260CE1
:10295000260B2606240F64091F0924092809393487
:102960002F0E3009320C2B0C2B0E2D092B0C300C9A
:10297000300C2D0C290C2D0C2B11280F26092409A5
:1029800028092609240C300C2D09300E700C303427
:102990001C352B0C280B2406260C260B260679202A
:1029A0008E30240F0039EC010009240928092B0975
:1029B000300F2F0C2D0C2B0C280C240C240926096D
:1029C000280F260F2411003969000F30240C00391C
:1029D000EC013010240C300F320C341174112634F9
:1029E0002B06FF36300334037409741000003034B2
:1029F0001C35110F120F130C140C150C110C130FA6
:102A0000170C130C0C0C150C130F00396900410046
:102A10000C091309180C10091609180C11091809CA
:102A20001D0C120918091B0C13091C091F0C0E0997
:102A300015091A0C130C150C160C170C18091C0987
:102A40001F0C16091C091F0C150918091D0C120969
:102A500018091B0C13091C091F091C0913091A0961
:102A600015091709180C140C130F39340C09130924
:102A70001809130910091609180916091109180966
:102A80001D091809120918091B09180913091C093D
:102A90001F091C090E0915091A091509130C150C33
:102AA000160C170C30340C091309180913091009F6
:102AB000160918091609110918091D09180912091A
:102AC00018091B09180913091C091F091C091309F6
:102AD0001A091509170918091309100913090C0F08
:102AE00039340038ED0413091A091A091A091309AF
:102AF0001A091A091A0913091809180918091309D2
:102B000018091809180911091509150915090E09D7
:102B100011091109110907091309090913090A09FA
:102B20008D3613090B0913097F360C09130918098F
:102B300013090A09130916091309090911091509C5
:102B40008D3611090E3506060C069F360F06120645
:102B500015061806B6361C351B0E30347F361309A1
:102B60001C091F091C0913091A091509170900383E
:102B7000ED04C420E73018091309100913090C0FDC
:102B8000110918091D091809120918091B09180942
:102B900013091C0914091C0915091C0914091D092C
:102BA000130918091C091809130917091A09170923
:102BB0000C0C150C8A36130F7F36113015091809C5
:102BC0001D091809150911090C098D36090908098B
:102BD000110918099F36140911090C09B63608099C
:102BE000050946360E350C0913090C090E091009A2
:102BF000130918094F361A091C091F092409260947
:102C000028092B096A36300926341C353209003967
:102C1000EC011311000021341C352D0F270F240C5B
:102C2000230C210C200C1F0F1D0F1C0C1D0C1C0F46
:102C30000039EC0141001F0F1F0F240F270F240F35
:102C40001E0F1F0F1F0F1F0F1F0F240F270F240F03
:102C50001D0F1C091F091D091A091C0F25341F0F00
:102C60001F0F240F270F240F1E0F0E3500091F0CF6
:102C70001F0C1C351F09230321081F0921341F0FB6
:102C80001F0F240F270F240F1D0F1C10240925349C
:102C90002809290F290F280F280F290F240F230C8B
:102CA000240C250C260C1F0F1C0F1D0F2710213480
:102CB000240F1D0F51205F301C112D0F270F240CE6
:102CC000230C210C200926091F0F1D0F1C0C1D0CA5
:102CD0001C0F10301D0C29101D0C29102B111E3437
:102CE0006B1100032403640B64100000000000005B
:102CF0005201FB0348270000ED0200001500000010
:102D0000EC01000000000000000000008628000028
:102D1000ED02000014000000AA0000000000000006
:102D200000000000AE2A0000ED02000015000000C7
:102D3000AA00000000000000000000004534183523
:102D4000340E3409340C32093409370F390C370C7E
:102D5000340E3709340C320C30114100370C39096C
:102D60003709340C300C320E3409320F2D0C300977
:102D70002D092B0C300C340C37093409320F340E6A
:102D80003409340C32093409370F390C370C340E3E
:102D90003709340C320C30111020340E3709340C42
:102DA000320C3011000C00003034183500092B09AA
:102DB00030092B092F0F3209300930092F092D094D
:102DC0002F09300C00092D0930092D092F0F30096A
:102DD0002B0929092B09280F340C35093409300C2B
:102DE0002B0C2F0E30092F0F290F280C2B0C300F16
:102DF0002F0F00092B0930092B092F092B092F0947
:102E00002B0930092B0930092F092D092F09300C06
:102E1000000930092B0928092B0C290C28092B093A
:102E200029092B09280F3409320930092F093009E3
:102E30002F092D092B0929092D0930092D092C09E4
:102E40002D092F0C2D092B09290C280929092B09DB
:102E50002809300E30092F0F0009300932093009D6
:102E60002F0C2D0C3209300930092F092D092F099B
:102E7000300C000930092D0930092F092E092F0CBB
:102E8000300C2F0C2D0C2B0C2A0926092D0930098A
:102E90008D362F0FB6363009280926092809D43671
:102EA0002410000024342035180F1D0F1C0F1D0C9A
:102EB0001C0C1A0F1F0C1D0C1C0C1A091C09180FD6
:102EC000181018091C091F0F1F0F000C150C180CE7
:102ED0001C0C1F0F5F091D091C091A09180F1D0F73
:102EE0001C0E1C091D0C1C0C1F0C1C091809170FAB
:102EF0001811180F21091F091D091C091A091D099C
:102F000021091D091C0F1D091C091A0C18091A0991
:102F10001C0918091F0F1F0C200C210E21091F0C62
:102F20001D0C1C0E1C091D0C1C0C1A0E1A091F0C62
:102F3000200C210C1F0C1D0C1C0C1A0F1F0C1D0C3F
:102F40001C091F091D091F091C10000000000000BA
:102F50004301F703D42B0000ED020000180000002D
:102F6000AA0000000000000000000000402C00004B
:102F7000ED02000018000000AA00000000000000A0
:102F8000000000003C2D0000ED04000018000000CF
:102F900069000000000000000000000018480168FF
:102FA000184A1143016018480168184A114301602A
:102FB00017480168174A1140016064204002401E12
:102FC000FDD115480168154A114009D0144815492A
:102FD00001601448006880F30888134800680047BF
:102FE0001248804712480047FEE7FEE7FEE7FEE78B
:102FF000FEE7FEE70F4810490E4A104B70470000ED
:1030000034100240010000000C00005008000000D5
:1030100000000050F3FFFFFF10000050020000000E
:1030200008ED00E00000FF1F0400FF1FFD30000856
:10303000C100000818020020180600201802002015
:1030400001E004C0091F0429FBD28B0701D50280CF
:10305000801CC90700D00270704700290BD0C3073D
:1030600002D00270401C491E022904D3830702D5F6
:103070000280801C891EE3E70022EEE70022DFE7E2
:10308000704770477047754600F024F8AE4605005B
:1030900069465346C008C000854618B020B5FFF702
:1030A000A9FF60BCB64600260027C0C5C0C5C0C584
:1030B000C0C5C0C5C0C5C0C5C0C5403D4908490060
:1030C0008D46704710B50446C046C0462046FDF701
:1030D00042F810BD00487047000000200149182048
:1030E000ABBEFEE726000200704700000248016800
:1030F00002220A4302607047047C00400E480168C7
:103100000122114301600D4841680D4B0B400D49F0
:10311000096819434160110602680A4302600168A8
:103120008901FCD5816802220A43826081683822C5
:103130000A40102AFAD170470020024000100240D5
:103140000000FFFF100FFF1F10B515480146303972
:1031500000230B60134A1178134C2478A14200D14C
:1031600010BD11784900114C615E1478312C01D0EA
:1031700013785B1C1370012905DB002202600838FC
:103180004909016010BD0346083B00221A6000296E
:1031900001D4026010BD89024942C90B016010BD13
:1031A000402C0140C6000020C70000206200002023
:1031B000F0B587B005210D070826AE612B48042223
:1031C00002920260E4220092426000220192826038
:1031D00003910160012106910A0401681142FCD0AB
:1031E000AE622968224801402048069B9B06059351
:1031F000C9182960AB210723049205E04900AE629B
:1032000062B65B1E002C1AD04CB2002C01DA1824D6
:1032100000E02824069F7F032F5172B6AE611C0682
:10322000ECD12F68124807402F60EF6807400F4825
:103230003246059E37431646049AEF60DEE7AE61DC
:10324000029C046000994160019D8560039B0360BE
:1032500001681142FCD004608421416085600360F4
:1032600001681142FCD007B0F0BDC04610E000E09C
:10327000FFFFFFF3F0B583B000903F4B586810217B
:1032800001430820814359600521D9600A0711686C
:10329000C025A9431160D168402631438027B94336
:1032A000D16018621968012001431960196804246B
:1032B0000C431C6031490C78002C02D1304C24782E
:1032C0000C70019702950D782D4C2478AC4201D9F1
:1032D0006F1C01E0274600D20F702A4D2F78002F77
:1032E00001D00F2500E01E2509786918A14210D2EF
:1032F000791CC8B2884200D10746224C2770032FA0
:1033000016D01F2F1CD1009800281FD0791E022034
:1033100013E0391F009C002C029D019F02D0CCB20B
:103320001C2C18D3C8B200211C280BD308460AE075
:10333000009800280CD0791E0320029D019F03E015
:10334000002006E001200F4C217004E0022000E084
:103350000320029D019F1946083909684907FAD5DB
:10336000996B1368AB431360054B1970D1683943EF
:10337000B143D16003B0F0BD08240140C800002073
:10338000CA000020C900002000B5A5B0E9481738E0
:1033900001210B910F04E84AE84D04242C606A6077
:1033A0000026AE6005232B6029683942FCD0401E00
:1033B0000104F2D10B980207E148001F0168114394
:1033C00022900160DF48016821430160DC480C382D
:1033D000016823220A430260D74A18071590006843
:1033E00023900C20019001982399814323911599F2
:1033F00023980860C8680821199119990843A043C7
:103400001599C8602C606A60AE602B6028683842ED
:10341000FCD01598006980070BD57D2000012C6039
:103420006A60AE602B6029683942FCD0401E0104FE
:10343000F5D15F20C04304905F30C3490860159AFE
:103440001060CE601146D6601998906110684022D5
:103450000992104380220892904308602C60E42077
:103460000A906860AE600C932B6028683842FCD0EC
:103470000868B64A10400860B5480670C868104031
:103480000B9A92060E928018C860FFF791FE0B9A75
:10349000D102AB4B18681691084318609002109047
:1034A000401EAC4BD8609103586A13910843586290
:1034B0005E60184620380168114301600D20C1028A
:1034C0001846083802680A4302601A6810202390E0
:1034D00002431A60A04A136808980343099883437B
:1034E00013600B980003136A03431362994A121F77
:1034F00013680B431360974B19681C9001431960C4
:10350000159A116819980143A1431160116A104678
:10351000D0220A4302620B98400302462032196807
:10352000114319608D491E90086019680392114378
:1035300019601846143805900B9B036019058048E4
:1035400002680A430260D80785492190886098057F
:10355000844A12680243834802600722CA600C62F0
:10356000086818430860086820430860084608385F
:1035700000684007FAD5886BF6490870F64880570E
:10358000C1B200286E48029104D43F2905D97F2199
:10359000209115E0FF21209112E01F2902D93F213F
:1035A00020910DE00F2902D91F21209108E0072961
:1035B00002D90F21209103E0032900D80322209291
:1035C00000680B9A10435E490860159B186830210B
:1035D00088431860D8682399084320218843D8601D
:1035E000DE48209901705648006A1043544A106220
:1035F000106A8007FCD50B98800451690143516122
:1036000022990868219A10430860D54A1046083864
:103610000168022306931943016010680B9908435F
:1036200010601098906048044C490860FCF79AFDBF
:103630000B98C0030790CB4A1088411E11800028C8
:1036400017D0C9480660C94A1078411E1170002879
:1036500001D000F010FC0021C54814910180012127
:103660001291C2480170C3480088002854D0401EFF
:1036700054E0BC48C0490180C0480078C04909787E
:10368000014301D000F012FEBE490888401C0880AA
:1036900080B220281599199A01D200F00CFE8A6197
:1036A0000420219028600A98686000202390A86078
:1036B0000C98286028683842FCD08A620868234A3F
:1036C00010400E9A10430860B920072108E090626C
:1036D00002462298400062B6491E002B00D1E8E263
:1036E00042B2002A229001DA182300E02823159A1A
:1036F0001E98D05072B6199890610B06E7D12093AE
:103700001368124803401360D36803400E980343C4
:10371000D360209B199ADCE79B4800889549088074
:103720009A4800781790149A104699490F920A46C1
:103730002BE0C046FF03000074BB000010E000E077
:103740004010024010ED00E000140050FFFFFFF3B6
:10375000F5010020202C01400004005000E100E0B1
:103760000824014008270140209A91611D99497859
:10377000803848430F9941187D480F9101804032AD
:103780001899481C032900D337E2189010680028C4
:10379000F5D0104634301D9081781498401C149058
:1037A00021910029209218D072480088002800D06A
:1037B0009BE12198401E1D998870508D002800D1F2
:1037C00093E11146D28C098D914200D886E1101800
:1037D00080B2884200D385E185E1108C23901046A9
:1037E00039301B900B990EE00F2101408006800FAD
:1037F0001B9A115422982390209A2198C0B24142DA
:1038000041410028D0D12398401C22901084536855
:10381000239880B240001F93185A00235385D38405
:10382000D0831E9A10422BD1C204D20E43D0511E17
:10383000CAB258A11A928A5C1D9921928A70810697
:1038400000D1E5E01399084266D117990A183F2183
:1038500011910A405549895C343A0C2A00D30B096E
:103860000907C90E524A515AD9400B46209AD184B1
:10387000010600D5A3E0229923914006BDD4CDE0F6
:103880001C9908420BD10105890F1B9B5A5C002A29
:10389000B0D0521E5A5447490840209A08E0169961
:1038A00008421CD110990842209A4AD14149084047
:1038B00010842390A1E7420696D4820600D494E1B6
:1038C0001F21084000D1B0E0179A12182F490A7042
:1038D000102800D2CCE0203A17920A708AE707211C
:1038E00009020840129A5102884200D1B2E0110246
:1038F000884200D1A0E00028209A00D0D3E023988D
:10390000801C23901084229880B240001F99085A8E
:1039100011494018906070E72399891C209A2391DF
:103920001184C1B2918393611346229989B24900EF
:103930001F9A515A084A89181A46596140066DD58E
:103940005BE78105890FC0467944097949008F44B6
:10395000339198A1DC01002068010008CC00002010
:10396000107C0040D0000020D4000020F401002092
:10397000EC010020E8010020F20500000C0200200C
:10398000EE01002060000020E4010020F001002092
:10399000DC00002002040608090C10121820243054
:1039A00040486090C05054A8FF000000CE46000878
:1039B0000E470008FF0300001D9908701AE70D93D9
:1039C000229989B249001F9A535A3A46803A1A40BE
:1039D000802A209A05D11946239B9B1C229313848D
:1039E0000B461A99072900D245E75A0B10D1802BB4
:1039F0000ED31A4611990A400AD0179AD118119A73
:103A00001140FA4A525C34390C294FD311094EE067
:103A100022992391209A400600D5EEE60020D08519
:103A20001D99C87008715086E7E6F64800688179EC
:103A3000F54817910170DDE62398801C209A2390A9
:103A40001084229880B240001F99085AEF4940180C
:103A5000D060D2E62398801C209A2390108422986C
:103A600080B240001F99085AE84940181061C4E626
:103A70001792BFE6C0B2209A1168896841439185C8
:103A800011E0C0B2DF49096889884143C809E049AB
:103A90000880AFE6209A53861D990B71C0B2116859
:103AA00009694143118622982390A6E600212391BB
:103AB000D8A11A9BC95C1207D20EDC4B9A5A239BE1
:103AC000DA40209B1A850D9B934201D2D21A00E066
:103AD0009A1A5143090B209A5185CCE6101A80B2EC
:103AE000884200D80846209AD084D08B800600D126
:103AF00045E6908D002820D0D18D002919D11D9B3D
:103B0000DB782393D3682293239A9A1852782192D0
:103B10001D9A1278219B5A43120A1D9B5A70239BAF
:103B2000229A12789342209A03D25A1C1D9BDA7073
:103B3000209A814205D8481C04E01D9908784870F5
:103B400001E00020D085D08B400439D49068134622
:103B5000928C110A405CD98C8A189A841A8E002A99
:103B600041D05A8E002A1A461FD11D9B1B792293E1
:103B700012692392239AD218527821925A1C1D9BC3
:103B80001A71239B1B782392D2B29A4201D8239AAE
:103B900022921D9A229B1371219B802B02D9FF2216
:103BA00012029B18209A5918D1841146128E498E00
:103BB000491C8BB2934200D30021209A5186D5E54F
:103BC000536923939169080A80B2181880781346C4
:103BD000928B8A189A61239B1B881B029A4200D9F8
:103BE000C2E51146C0E51A46C0E5C80703D000206B
:103BF000209A1060C3E5209AD6E51498C0B2411E01
:103C000088418B49097800290B9900D00146002989
:103C10007C4800D02FE100680068002800D125E131
:103C2000002384490B7084490B8078494218219203
:103C300074480260907974490870908874490880CB
:103C40001946049822907D480AE000201860184622
:103C5000229B18334030491C2293002B00D10AE1EB
:103C600003462198C0798142EFD220914021184625
:103C70002393FFF701FA2198229BC018014668316F
:103C8000239A1160816E614A8918239A5160C16E2E
:103C90005E4A8918239A9160416F5C4A8918239A79
:103CA000D1602099C06F594A8018239A106110463C
:103CB000CFE715998A61219828600A98686023984F
:103CC000A8600C98286028683842FCD021982860A9
:103CD000842068602398A8600C982860584A286857
:103CE0003842FCD019988861219828600A98686049
:103CF0002398A8600C98286028683842FCD00A20D5
:103D0000219929606A602399A9600C992960296822
:103D10003942FCD0401E0104F2D10598239901607C
:103D2000484801628161103801600168C907FCD010
:103D300044490868444A1040086005E00120FFF744
:103D400099FA002800D087E24048016802222092B8
:103D500011430160272149023D4802680A4302607D
:103D60003C49383923980860BFF34F8F30BF3A4B36
:103D70001A680120229002431A60364A3C3A1368BE
:103D80003648034036480068184310602298000601
:103D9000304A403A13680343136010688001FCD531
:103DA0000868209A104308600C9B0868382202407B
:103DB000102AFAD1219828602A4868602398A860C0
:103DC0002B6028683842FCD0274B18781599096970
:103DD00049070DD4421CD1B2914200D10846187057
:103DE000032800D136E21F28A8D133E2CE460008CE
:103DF000001FC0B21C2800D22EE21B48239901707C
:103E00009CE7C046E0010020F001002068010008A6
:103E1000E401002000000000000000F0B2847557AB
:103E200041392B1C15333118100000000E470008D3
:103E3000EE010020F4010020E8010020DC00002059
:103E400074BB0000202C0140DFDFFFFF107C00402E
:103E50000070004040100240002002400000FFFFC0
:103E6000100FFF1FF40E0000F60100200020E449AF
:103E70000880E4490870E248805FE34A1168081846
:103E80001060E2480088002800D18CE1E04800681A
:103E9000E0490968814231D2DF4A1088C10532D435
:103EA0000146DE4A1140914200D076E1C0B2DA49C3
:103EB0000880DB480088239000B24000D949095AA5
:103EC000CA08D9480078219000094307229353D5A6
:103ED0005218830752D4C00701D088081218D3485B
:103EE0000088219949B2002991B200D534E14018E7
:103EF000CF49884200D232E1CD4830E1CD4806803A
:103F0000C24806804FE1C0B2079908431080CA48F2
:103F10000078002800D0C4E015991998886288625A
:103F20000868C64A10400E9A104308600320072113
:103F300008E023984000199B936262B6491E229ABA
:103F4000002A20D042B2002A239001DA182300E090
:103F50002823159A1E98D05072B6199890610806B9
:103F60002290E6D11368B54803401360D36803403C
:103F70000E980343D360DCE78307ACD54B08D21817
:103F8000C007AAD1ABE715990868AC4A10400E9A51
:103F9000104308609F484088072108E023984000AC
:103FA000199B936262B6491E229A002A19D042B226
:103FB000002A239001DA182300E02823159A1E987E
:103FC000D05072B61998906108062290E6D1136815
:103FD0009A4803401360D36803400E980343D360AC
:103FE000DCE715990868954A10400E9A104308605E
:103FF00088480068000A072108E023984000199BC0
:10400000936262B6491E229A002A19D042B2002A4F
:10401000239001DA182300E02823159A1E98D05027
:1040200072B61998906108062290E6D11368834809
:1040300003401360D36803400E980343D360DCE76A
:10404000159908687D4A10400E9A1043086071481F
:104050000068072108E023984000199B936262B62C
:10406000491E229A002A19D042B2002A239001DA6E
:10407000182300E02823159A1E98D05072B619987C
:10408000906108062290E6D113686C4803401360E3
:10409000D36803400E980343D360DCE70B9866496E
:1040A00008700720159B0AE072B6159B1999996153
:1040B0009961996262B6411E000608460DD02499A6
:1040C000490024AA117019691E9A1142ECD00121ED
:1040D000249A0A4324A90A70E6E724A800785249E2
:1040E00008704C4A1168491C11604D490988239198
:1040F0000AB252004B498B5ADA08410713D5D2183D
:10410000810712D4C10701D0990852180F21084025
:1041100046490B88082892B20CD29A18444B9A420E
:104120000BD3434A09E08107ECD559085218C1075F
:10413000EAD1EBE79A1A00D232460A804007000F14
:104140003F4A105A239A8018354A108000B200283E
:1041500016D4582812DC15E0401A00D2002033494A
:1041600008802298000F364A105A239A80182C4A49
:10417000108000B2002803D4592803DB582000E047
:104180000020108008880799484000B2E62141438A
:10419000080E0818000A274908802A4800881E4A85
:1041A00011880818108000202249095E164B1A68F1
:1041B00051181960194A823A914202DDFC4981394D
:1041C00003E0FC4A9142114601DA0F4A11601E4990
:1041D0000978491CCAB2322A00D008460A4909683F
:1041E00023911A490A78C3B29342FBD0164A127837
:1041F00052001749239B8B5213490870FFF71BFA93
:10420000EC010020EE010020D40000200C02002070
:10421000FC010020F8010020000200208080000046
:10422000140200200C460008160200201002002094
:10423000FFFF000008020020F5010020FFFFFFF350
:10424000BE46000804020020C7000020C60000206F
:1042500062000020401E1870D1490868039A10437C
:104260000860059822990160159919988861086875
:10427000099A1043089A90430860219828600A9888
:1042800068602398A8600C98286028683842FCD0A1
:104290000868C14A10400860C048239B0370C86882
:1042A00010400E9A1043C860FEF782FF0020C449F8
:1042B00008801599199A8A612C600A986860002014
:1042C000A8600C992960BF4B29683942FCD02C604A
:1042D0000A996960A8600C99296029683942FCD064
:1042E0001978159A1269520709D44A1CD0B2904223
:1042F00000D101461970032908D10A4607E0187059
:10430000091FC9B21C2906D2012004E000221F297E
:10431000069800D010461599199A8A610A460968CC
:10432000099B1943089B994311602C600A996960A5
:1043300000212391A9600C99296029683942FCD099
:10434000159A1168944B194011609449239B0B7086
:10435000D168914B19400E9B1943D16000280B99ED
:1043600068D0022871D00128239801D0FFF769F99D
:104370001F91002800D0A0E08A4908780C9A504389
:10438000401C08708949097801408F480078081856
:10439000421C029B1146D21AC8B29842FAD88A4AE5
:1043A00011700A067ED0854A1278824200D184E0DC
:1043B000824A1170002285490A7085490A8080006E
:1043C00079494058431883480360987982490870B6
:1043D000988882490880194604982390804B22913E
:1043E00008E000201860239818304033521C2390B6
:1043F000002862D0C8798242F3D240211846219227
:104400002093FEF739FE209B2298239940180146FD
:1044100068311960816E644A89185960C16E8918C3
:104420009960416F8918D9602299C06F8018219ACC
:104430001861D8E700202390FEF71CFF00282CD03D
:1044400000210B9A239202288DD1239800280CD1A9
:104450001F910420624900220A604031401EFAD1B7
:1044600060480280554802701F99002901D0FFF76B
:10447000E8F8159819998161042028600A98686005
:104480000020A860594908804B4908800C98286092
:1044900028683842FCD0FFF7D4F80B9923980228FB
:1044A000D3D060E74E482146002202604030491ECA
:1044B000FAD14C480280414802701F98002801D070
:1044C000FFF7BFF8374908780C9A5043401C087032
:1044D00007210140444800780B185A1CD1B204202F
:1044E00022902391401A00D20020C11803230846CD
:1044F0009843121A3C480270FC20084023998142DC
:1045000013D1159819998161229828600A986860DA
:104510000020A86035490880274908800C98286049
:1045200028683842FCD0FFF78CF8D1B222480088C6
:10453000884201D1FFF785F81598199B836122986D
:1045400028600A9868600020A8601B4B1980274BE0
:104550001880079B264A1380264A10800F4B18703C
:1045600001200002244A1080481E80B2019948436D
:10457000224B1958224A11600C9A2A601818426876
:104580005118204A1160008940081F490880286896
:104590003842FCD0FFF755F8FFFFFFF3F50100208C
:1045A000202C0140DC01002068010008CC00002024
:1045B000808000000080FFFF0C020020EE01002040
:1045C00060000020F6010020CB000020F401002054
:1045D000E8010020E0010020F0010020E4010020BB
:1045E000DC000020EC010020D800002008020020A0
:1045F00010020020140200200002002028470008BA
:10460000F8010020FC01002004020020070008003F
:1046100009000A000B000C000D000E001000110034
:1046200013001500170019001C001F0022002500B0
:1046300029002D00320037003C00420049005000A4
:10464000580061006B00760082008F009D00AD0075
:10465000BE00D100E600FD001701330151017301D6
:104660009801C101EE01200256029202D4021C03FD
:104670006C03C30324048E04020583051006AB06F5
:1046800056071208E008C309BD0AD00BFF0C4C0EF8
:10469000BA0F4C110713EE1406175419DC1BA51E94
:1046A000B6211525CA28DF2C5B314B36B93BB24108
:1046B00044487E4F71572F60CE696274FF7FFFFFC1
:1046C000FFFFFFFFFFFF020004000600080058592B
:1046D0005A5B404142434445464748494A4B303182
:1046E00032333435363738393A3B202122232425DA
:1046F000262728292A2B10111213141516171819FA
:104700001A1B000102030405060708090A0B2D0EF7
:10471000050FEA0FDC10DD11EC120C143E158116AA
:10472000D8174319C31A000000000000B2201F0070
:1047300057000000B2201F00729C1A0057000000B2
:1047400024BD3900C0920C0057000000E44F460021
:10475000FFB021005700000068470008000000205B
:0847600018060000200100080A
:04000005080000C12E
:00000001FF
