:020000040800F2
:1000000040060020DD2B0008292C00082B2C0008BE
:1000100000000000000000000000000000000000E0
:100020000000000000000000000000002D2C00086F
:1000300000000000000000002F2C0008312C0008F8
:10004000000000000000000000000000332C000849
:10005000332C0008332C0008332C0008332C000804
:100060000000000000000000000000000000000090
:10007000332C0008892D0008332C000800000000F4
:10008000000000002D2D000800000000000000000E
:1000900000000000332C000800000000332C000892
:1000A00000000000332C000800000000332C000882
:1000B0000000000000000000000000000000000040
:1000C00000F002F800F03EF812A030C808382418FA
:1000D0002D18AC4201D100F035F80FCCA246AB464A
:1000E0000CA730CF2D1B083F3F197C427F1E544484
:1000F0002D090426F441641EAC4201D300F022F81D
:100100000126334200D0FB1A3343984754465D46DC
:10011000DFE70000447200005472000070470000E6
:100120000023002400250026103A01D378C1FBD813
:10013000520700D330C100D50B6070471FB51FBDFB
:1001400010B510BD02F0BFFD1146FFF7F7FF02F03A
:100150006BFF02F0D7FD03B4FFF7F2FF03BC02F020
:10016000DDFD00007047000007000000FC0A0000F1
:100170000C0D00003811000010170000CC1A000010
:1001800098250000242A00003FFFEDDDCDBFB1A57A
:10019000998F857B736B635C56504A45403C38347D
:1001A000302D2A2724211F1D1B1917161413111077
:1001B0000F0E0D0C0B0A0A090808070706060505AD
:1001C0000504040404030303033FFFE6CFBEAFA30B
:1001D00099918A837C76706B65605C57534E4B4770
:1001E00043403D3A3734312F2D2A28262423211F1E
:1001F0001E1C1B191817161514131211100F0E0EB2
:100200000D0C0C0B0B0A0A090908FFFFF5EBE2D9EC
:10021000D0C8C0B6A798908F9497968D7B6961657A
:10022000717D80796A5C565A6672767062554F535A
:100230005E696D675B4F494D5761645F5448444741
:1002400050595D584D433E424A535551473E393C03
:10025000444C4F4B423935383F4649453D353133A3
:100260003A41434038302D30363C3E3B342D2A2C29
:1002700032373936302926282E3335322C2623259D
:100280002A2F312E29232122272B2D2B25201E20FA
:1002900024282927231E1C1D21252624201C1A1B47
:1002A0001F2223211D1918191C1F211F1B18161787
:1002B0001A1D1E1C19161415181B1C1A17141314BA
:1002C00016191A18151211121417181614111011E4
:1002D0001315161512100F0F11131413110F0E0E04
:1002E000101213120F0D0C0D0F1111100E0C0C0C1F
:1002F0000E0F100F0D0B0B0B0D0E0F0E0C0B0A0A31
:100300000C0D0D0D0B0A090A0B0C0C3FFFF6B27316
:10031000DED69B64C1BB8757A8A3764C938E6742F9
:10032000807B593A6F6B4E32615E442C54513B26B0
:1003300049473321403E2D1D38362719302F2216CC
:100340002A291E1325241A11201F160EFFFFF7F06D
:10035000E9E2DBD4CEC4B4ABADB5B7AB978C92A118
:10036000A79C8A8086949A9180777D8B90887870FC
:1003700076838981726B717D837E716560646F7A2B
:100380007E786A5C565B68747973665953586470FA
:10039000746E62555054606B706A5E524D515C676A
:1003A0006B665A4F4A4E58636762574B474B555FCF
:1003B000635E53484448525B5F5A504641454E582D
:1003C0005B574D433F424B5458534A403C40485181
:1003D0005450473E3A3D454E514D443B383B434BCC
:1003E0004E4A4139353840484B473F3733363E4512
:1003F00048443C3531343B4245423A332F32394050
:10040000423F38312D30373D403D362F2C2E343B86
:100410003D3A332D2A2C32383B38312B282B3036BD
:1004200038362F2927292F3436342E2825272D32E8
:1004300034322C2624262B3032302A252224292E11
:10044000302E28232123282C2E2C27222080787040
:10045000686059524B443E3934302C2926252323D9
:10046000232425272A2D3034383D42474C51575CF0
:1004700061666B7074787B7E8183848585858483D7
:10048000807E7B77736E69635E58514B443E373193
:100490002B251F1A15110C09060402010101020384
:1004A00006090C10151A20262D343B424A51596179
:1004B000686F767D848A90959A9EA2A5A7A9AAAB1B
:1004C000AAAAA9A7A5A29F9B97938E8A85807B76CF
:1004D000726D6965615E5B59575656555657595B43
:1004E0005E62666B70767C838A91989FA7AFB6BE7A
:1004F000C5CCD3DAE0E6EBF0F4F7FAFDFEFFFFFF40
:10050000FEFCFAF7F4EFEBE6E1DBD5CFC9C2BCB5F0
:10051000AFA8A29D97928D898582807D7C7B7B7B15
:100520007C7D7F8285888C90959A9FA4A9AFB4B971
:10053000BEC3C8CCD0D3D6D9DBDCDDDDDDDBDAD77A
:10054000D4D0CCC7C2BCB5AEA7A0989088808A94FE
:100550009EA7B1BAC2CAD2D9E0E6EBF0F4F7FAFC32
:10056000FDFEFFFFFEFDFCFAF8F6F4F2EFEDEBE81E
:10057000E6E4E3E1E0DFDFDEDEDEDFE0E1E2E3E56B
:10058000E6E8EAEBEDEFF0F2F3F4F5F5F6F6F6F562
:10059000F5F4F3F2F0EFEDEBEAE8E6E5E3E2E1E0B3
:1005A000DFDEDEDEDFDFE0E1E3E4E6E8EBEDEFF205
:1005B000F4F6F8FAFCFDFEFFFFFEFDFCFAF7F4F09E
:1005C000EBE6E0D9D2CAC2BAB1A79E948A80766C13
:1005D00062594F463E362E27201A15100C09060484
:1005E0000302010102030406080A0C0E1113151878
:1005F0001A1C1D1F20212122222221201F1E1D1B0B
:100600001A1816151311100E0D0C0B0B0A0A0A0BF3
:100610000B0C0D0E1011131516181A1B1D1E1F2082
:10062000212222222121201F1D1C1A181513110E10
:100630000C0A0806040302010102030406090C1057
:10064000151A20272E363E464F59626C768093A5A8
:10065000B6C7D5E2EDF5FBFEFFFFFCF7F2EBE3DCFE
:10066000D5CEC8C3BFBDBCBDBFC2C6CCD1D7DDE2ED
:10067000E7EAECEDECE9E4DED6CDC2B7ACA0958BB1
:10068000827A74706E6E71767D858F9BA7B3C0CCB5
:10069000D7E1E9EFF4F6F6F3EFE8DFD5CABEB2A58D
:1006A000998E837A726C6865646567696D71757916
:1006B0007C7F80807F7C78726B635950463C332B03
:1006C000241F1C1B1C1F252D37435160708090A0D8
:1006D000AFBDC9D3DBE1E4E5E4E1DCD5CDC4BAB01C
:1006E000A79D958E88848180808184878B8F939746
:1006F000999B9C9B98948E867D72675B4E42362BAD
:100700002118110D0A0A0C11171F2934404D596583
:10071000717B838A8F9292908C867E756B60544930
:100720003E332A221C1714131416191E23292F34A2
:100730003A3E41434443413D38322B241D150E09B6
:1007400004010002050B131E2B394A5B6D80818466
:1007500086898C8F93969A9EA2A6A9ADB1B4B7B99B
:10076000BCBEBFC0C0C0C0BFBDBBB9B6B3B0ACA8F3
:10077000A4A09C9894908D898784828180808081B8
:100780008284878B8F93989EA3A9B0B6BDC4CBD12A
:10079000D7DEE3E9EEF2F6F9FBFDFFFFFFFEFCFA20
:1007A000F7F3EFEBE6E1DBD5CFC9C2BCB6B0AAA444
:1007B0009F9A96928E8B88858382818080808080AC
:1007C00080818282838384848484838281807F7C0D
:1007D0007A7774716D6A66625E5A57534F4C494717
:1007E00044424140404040414345474A4D5054589F
:1007F0005C6064686C707377797C7E7F8080807FBA
:100800007E7C7975716D68625D57504A433C352F27
:1008100029221D17120E0A07050301010102040611
:10082000090D11151A1F252B31373E444A50565CCD
:1008300061666A6E7275787B7D7E7F808080808045
:10084000807F7E7E7D7D7C7C7C7C7D7E7F00000049
:1008500039341C350009100C100C100C1009410023
:1008600049341C0C13091C091A091809170918091D
:100870001D0C54341D0C49341D0C530C1C0C140954
:100880001C091A091809170918091A0C54341A0CEA
:1008900049341A0E5B091C0C13091C091A091809A2
:1008A00017091809210C5434210C4934210C1F0953
:1008B0001D091C0C1A091809150C4034170C392095
:1008C0003C301810130C083018112300180C1709AD
:1008D0001509110C13091509170C15091309100C2A
:1008E00011091309150C170918091A0C49341C09A8
:1008F0001D091F0C8D36230921091F0E7F36403438
:100900001D091C0C1A091809150C49341709180976
:1009100054341C091A0918091709140C493415090B
:100920001709180C8D361A091C091D0C240F9F3647
:10093000230C3D0000396100240C230921091F0C00
:100940001E091F09210C1D091C091A0C4034190924
:100950001A091D0C19091A091D0C493419091A091B
:100960001D0C19091A092409210940341F091D0900
:100970000039E40149341C0C13091C091A0918092F
:10098000170918091D0C54341D0C49341D0C530C47
:100990001C0C14091C091A091809170918091A0C42
:1009A00054341A0C49341A0C9A091B091C0C1309EB
:1009B0001C091A09180917091809210C5434210CAB
:1009C0004934210C230924092909260C2409220968
:1009D00020091A0B610621091F0C1C091A091809A4
:1009E000130B54061D091A0C1809160914090E0BCD
:1009F0005506150C130910090E098D360C09070B45
:100A000048067F360909040905090709090911097A
:100A100010090E090C09080909090B090C09180924
:100A20001709150913090B090E098D360C090B0955
:100A3000B6361309130E10098D36100C0E0C090C66
:100A400040340B0C7F3649340C1010091309140C78
:100A5000150C160C4034170C18101C091F09200C1B
:100A60008D36210C220CB6363934230C240FD436A3
:100A7000240C240CFF36241100003A341C350C09D8
:100A8000130C13090C09130C130941000C09130C66
:100A900013091009130C13090E09150C15090B097C
:100AA000130C13090C0913090B0914090909150C76
:100AB00015090E09120C12090B09130C13090C0964
:100AC000130C13091009130C130911091509100946
:100AD00015090E09150C15090709130C1309070947
:100AE000130C130937203E300C0C0E0C8D360F0CF6
:100AF0000E0C7F3609300C09130C13098D360E0CC1
:100B000033340F0C7F360709130C130C130C130925
:100B10000709130C130C130C13093A340709130CAF
:100B2000130C130C1309100C0F0C0E0C070C0C09F2
:100B3000130C13090C09150C150942340B09110C7F
:100B400011090B09100C10093A340409100C100992
:100B5000040F100F7F360709100C10090709110C3C
:100B600011090709100C10090709110C11090809CE
:100B7000110C11090709110C11091409110C1109A3
:100B80008D36070C130C7F360C09130C1309100952
:100B9000130C13090E09150C15090B09130C130975
:100BA0000C0913090B0914090909150C15090E097B
:100BB000120C12090B09130C13090C09130C13095D
:100BC0001009130C130911091509100915090E094B
:100BD0001509000C33341109110911091109110902
:100BE0001109130911091009100910091009100938
:100BF0001009100C11091109110911091109110924
:100C0000130911091009100910091009100C3A34C0
:100C1000040C050C040C020F090C070C060F050C44
:100C2000040C020C010F020F070F0009070C070943
:100C300004090C0C0C0905090C0C0C09070F0C0914
:100C4000130C13091009180C18091109180C1809AC
:100C5000130F0C0F2D3400090709000907090411AF
:100C6000000000000000000062010502E80600002C
:100C7000E504000015000000E40100000000000091
:100C80000000000012090000E5040000140000004C
:100C90006100000000000000000000003F341C352F
:100CA0001F0C1F091F091F0C1F091F094C341F0CA3
:100CB0001F091F091F0C40341F0C41001F0C1C0989
:100CC00061091F0C1C0C1F0C1C0921091F0C240995
:100CD0002609280E240926111F0C1C0961091F0C66
:100CE0001C0C1F0C1C0921091F0C24092809260EA5
:100CF00028092D20313024110039610010302410D2
:100D00000039E401000C5134280E69092B0C280C21
:100D1000280C26096409260F280E69092B0C280CBB
:100D2000280C26096409260F40341F0C1C09610990
:100D30001F0C1C0C1F0C1C0961091F0C240928091D
:100D4000260E28092411000F00003D341C35130C19
:100D5000000C130C000C4C34130C120C110C393415
:100D60000E0C41000C091309100913090C09130991
:100D7000100913090C091309100913090C091309A7
:100D80001009863613090C09130910097F36130957
:100D90000709130912091309110913090E09130987
:100DA0000C091309100913090C0913091009130977
:100DB0000C091309100913090C09130910098636C7
:100DC00013090709130917097F36130943204C300B
:100DD0000C09130910091309110913090E09130944
:100DE0000D300C091309100913090709130911091A
:100DF000130948340C0916351309130913090C0992
:100E00001309130913090C091309130913090B0911
:100E10001309130913090C09130913091309090903
:100E200010091009100905090C090C090C0907091A
:100E300011093934110911091C350C09130910095C
:100E400013090C091309100913090C0913091009D6
:100E500013090C0986361309100913090709130928
:100E60001709B63613090C09130910091309D436EA
:100E70000C1100000000000052010102340B0000C0
:100E8000E504000015000000E4010000000000007F
:100E900000000000E20B0000E50400001300000069
:100EA00061000000000000000000000033341E3527
:100EB000180C170C150C130C12091A091E0C150925
:100EC0001A091E0C110918091D0C150918091D0C09
:100ED00013091A091F0C170F180E1809180C130CF8
:100EE000180E1809180F410018091C0918091C09C7
:100EF000180C110C18091C091F091C0918091C09D8
:100F00001F091C0918091C091F091C0918091C09BB
:100F10001F091C0913091A091F091A0913091A09BB
:100F20001F091A0918091C091F091C09180C110CA2
:100F300018091C091F091C0918091C091F09170990
:100F400015091C0921091C09100917091C09170991
:100F500015091C0921091C09863613091A098D3641
:100F60001F091A097F3618091C091F091C09180CCA
:100F7000110C18091C091F091C0918091C091F0953
:100F80001C0918091C091F091C0918091C091F093B
:100F90001C0913091A091F091A0913091A091F093B
:100FA0001A0918091C091F091C09180C110C180929
:100FB0001C091F091C0918091C091F091C09110912
:100FC00018091D091809130C130C9120B4301809C5
:100FD0001C091F091C09180F1D09210924092109D1
:100FE0001D0921092409210918091C092B091C09BB
:100FF00018091C092B091C091A091E0921091E09B7
:101000001A091E0921091E0913091A091F091A09BB
:10101000130F1E3018091C091F091C09180F180C82
:10102000170C150C130C12091A091E0C15091A09B4
:101030001E0C110918091D0C150918091D0C13099E
:101040001A091F0C17091A091F0C18091C091F0C73
:101050008D3618091C09B6361F0CFF361811000012
:1010600033341E35180E1A091C091F0924092809D2
:10107000260F210C21092309240C210C1F0C1D0C07
:101080001C0C1B0C1A0F00091009130918091C0964
:101090001809130910090009100913091809180380
:1010A0001C085C0E4100003961000038E5021F0F8A
:1010B0002409280929092D09280F240F1F0F2409A5
:1010C00029092809240900091F092B091F092909D1
:1010D0001F0926091F091F0F2409280929092D099D
:1010E000280F240F1C0F2C09260926092609240F76
:1010F000260F280F280C290C280F240F1C0F2B0952
:1011000028092809280900091F092B091F0929098D
:101110001F0926091F091F0F2409280929092D095C
:10112000280F240F1D0F28092409230923096920EA
:1011300089301F0F0039E4010038E504000918095F
:101140001C091F092409230924092609240E210941
:101150001F091E091F0921091F0E1C091A0C1E094F
:1011600021092609240923092109230C210C1F0F19
:1011700023301F110039E4010038E504180E1A0964
:101180001C091F0924092809260F210C21092309FC
:10119000240C210C1F0C1D0C1C0F1C0F181100031C
:1011A0001C031F031803640E640F000033341E3544
:1011B0001F0C1F0C180C1F0C210F1D0F210C1D0CD8
:1011C000180C180C230F1F0F18111C0F1F0F4100B4
:1011D0000039E4010038E504240E260928092B090A
:1011E0002D0930092B0F280F240E260928092D0957
:1011F0002B0928092611240E260928092B092D0957
:1012000030092B0F280F300E30092F092809280923
:1012100028092D0F2F0F300E2F09320930092F0901
:101220002D092B0F280F300E2F09320930092B09F9
:1012300028092611240E260928092B092D09300911
:101240002B0F280F2D0E2F093009280926092809F0
:10125000542061302411003961000038E502210F6B
:10126000210F180F180F210F210F1D111230181107
:10127000003961000038E5021F0C1F0C1C0C1C0C0F
:10128000210F1E0F210C1D0C180C180C230F230FFF
:101290001C111003130318031C035C0E5C0F0000E9
:1012A000000000005A010003440D0000E5020000A8
:1012B00015000000610000000000000000000000B8
:1012C000F80E0000E504000015000000E401000035
:1012D000000000000000000044100000E5020000D3
:1012E0001500000061000000000000000000000088
:1012F00030340E3500091C091A0918091A09180991
:1013000013091C35150955090E351A091C351A061D
:101310005C065A065C061A0F00090E351C091A09EC
:1013200018091A09180913091C35150955090E352C
:101330001A091C351A065C065A065C061A0F003993
:10134000A301000C26341C091F0921091F091C09CF
:101350001A095A091C061A061810000918091A0950
:1013600018091C091A091809180958091A061C062F
:101370005C10000C1C091F0921091F091C091A090E
:101380005A091C061A061810000918091A09180922
:101390001C091A0918091809580C2B3400090039BE
:1013A000E401180918091C091F0930341F095F0FCF
:1013B0005F0921091C061A091806580E1809180990
:1013C0001C091F091F095F0F5F0921091C061A0963
:1013D0001806580E2B3400396100240921091F0911
:1013E0001C09180926340E351A0C1C0C2B341E0C43
:1013F000210930341C351A095A090E351A091C0CFA
:1014000034341E0C0039E4019A091C356109393461
:10141000210F6109240921091F093034000900390D
:10142000A3011C091C095A09180C1C0C41002109B4
:101430001F0F180918091C0921091F095F0F1C0932
:101440001F09240C2409210C1C0C1F095F101C0906
:101450001F09240C2609240C200E1F0C2309210C23
:101460001C0EBB20CA301A0F2109240921061F06B1
:1014700039341F09303400091C091C095A09180C99
:101480001C0C9F301A0F210C1F0C1F0C210C2B342D
:101490001C0C1A0C26341A0918095810003961005E
:1014A00000090E350038E5051309150917092B3415
:1014B00018091A091C091D093034000928092609D0
:1014C0002409260924091F091C35210961090E3543
:1014D00026091C352606680666066806260F0009DA
:1014E0000E35280926092409260924091F091C3557
:1014F000210961090E3526091C352606680666068F
:101500006806260E26062806240F000F0000303439
:101510000E35180E130E100C110E130E15091709A7
:10152000180E130E100C110E130C2634000900387F
:10153000E50415091709180E1809180F110E110CDA
:101540001309150C130E1309130F100E13091809A4
:10155000150913091009180E1809180F110E110C8E
:101560001309150C130E1309130F100E2B34130946
:10157000130F3034000C1C351C0C0E351C091C35A7
:101580005C0E0E351509150915091C351509550F81
:10159000000C1C0C0E351C091C355C0E0E35150993
:1015A000150915092B341C351509550F26340E3530
:1015B0000E0C100C2B34120C150930341C350E098E
:1015C0004E090E350E09100C3434120C1C358E09E0
:1015D00015093934110F5109150911090E3513096F
:1015E000303400114100180E130E130C100E170E9C
:1015F00013091709150E100E100C170E100E1309F3
:101600001709150E110E0C0C1009130917091C35BA
:101610000D094D0F0E35862093300009150911096B
:101620000E091109150918065706393417093034FF
:1016300000116C300009150911090E09110915096D
:101640001A091809000917090009170900092B349C
:10165000130915091709263400091009130910097F
:1016600013091009110915091309100911091309A2
:101670002B341509170918091A093034180E130EDE
:10168000100C110E130E15091709180E130E100C5D
:10169000110E130E150917091811000021340E350B
:1016A000130E100E0C0C150E170E11091309130E44
:1016B000100E0C0C150E170C263400090038E5042A
:1016C00011091309130E1309130F150E150C110927
:1016D000110C00091C3515091509150918091509FA
:1016E0001509150955091306180658100E35130E5D
:1016F0001309130F150E150C1109110C00091C35D7
:101700001509150915091809150915091309530CA7
:101710002B3400090039A200100910091309170918
:1017200030341709570F5709180913061109100605
:10173000500E10091009130917091709570F5709F7
:101740001809130611091006500C00092B34003932
:1017500061001C09180917091309100926340E35F0
:10176000150C150C2B34150E30341C351509550984
:101770000E351509150C3434150F39341C35180F76
:1017800058091D09180917093034001141001C09B6
:101790001C091C0918091809180913091309170944
:1017A000170917091C091C091C0917091009150933
:1017B00018091C09180915091809150C100913092D
:1017C0001709130917091C091709100900091C3505
:1017D00011091D090E351D0C1D091D091D090009E2
:1017E0001C3510091C090E351C09000915091509BD
:1017F0001509AD20BA300009150915091509180990
:101800001D091D061D0639341D09303400117930BB
:101810000009150915091509150918091D090009F7
:1018200000091A0900091A092B34000913091109C2
:101830000E092634000913091809130918092B3455
:101840001309150918091C0C000E0038E5051309C9
:10185000130913093034130E100E0C0C150E170E4D
:1018600011091309130E100E0C0C150E170E110989
:10187000130910110000000000000000140106030D
:1018800088110000E5040000140000006100000061
:101890000000000000000000A6130000E5020000A8
:1018A00015000000610000000000000000000000C2
:1018B00034150000E505000015000000610000007F
:1018C000000000000000000030341C351F0E21090C
:1018D0001F091C091A091809240F210E6108230386
:1018E000210C1F0C1C0E18091A091F091D092109BA
:1018F0001F091A091C091D091F0E21091F091C09AE
:101900001A091809240F210F2D092B092809240968
:10191000290328086809260C24091F091C091F0926
:10192000240F0039E40141001F0E21091F091C0981
:101930001A091809240F210F1F0C1C0C1C0E180962
:101940001A111F0E21091F091C091A091809240F51
:10195000210F21091F091C0918091C0C1A0C181148
:1019600039340039A301240F230C210C1F0F1C0F45
:101970003034210C1F0C1C0C180C1A10000C0039F0
:10198000E4011F0E21091F091C091A091809240F57
:10199000210F6E2021091F091C0918091C0C1A0CA3
:1019A0001811000021091F091C0918091C0C1A0C28
:1019B0001810000C303030341C350C091309100994
:1019C00013090C091309100913090C091509110948
:1019D00015090C091509110915090C091309100934
:1019E00013090C09130910091309070F130C130C21
:1019F0000C091309100913090C091309100913091B
:101A00000C091509110915090C0915091109150900
:101A10000C09130910091309070913090E09130901
:101A20000C10000C0038E50441000C0913091009E2
:101A300013090C091309100913090C0915091109D7
:101A400015090C091509110915090C0913091009C3
:101A500013090C09130910091309070F130C130CB0
:101A60000C091309100913090C09130910091309AA
:101A70000C091509110915090C0915091109150990
:101A80000C090E0910091109130C070C0C0F100C8E
:101A9000130C39340C091309100913090709130928
:101AA0000C0915090C091309100913090C0913096C
:101AB000100913093034120C130C150C140C130FED
:101AC000070C070C0C091309100913090C09130959
:101AD000100913090C091509110915090C09150933
:101AE00011091509A7200C09130910091309070981
:101AF00013098D360E0913099F360C0C130CD436BE
:101B0000180F00000C09130910091309070913091C
:101B10000E0913090C0C130C180F3A3021341C3524
:101B20001F0E21091F091C091A0918091D11180C7B
:101B3000180C180F13091F091D0921091F091A097B
:101B40001C091D091F0E21091F091C091A09180962
:101B50001D112D092B09280924091F0C1D0C1C0916
:101B60001F091C091F09240F0038E50241001F0E40
:101B700021091F091C091A0918091D111F0C1C0C29
:101B80001C0E18091A0913091509170918091A0949
:101B90001C091D091F0E21091F091C091A09180912
:101BA0001D11180C000E1C0900091A09000918095A
:101BB0001C091F0921091F092809260925341F0F9F
:101BC0001F0C1D0C1C0F180F213421092D091F0992
:101BD0002B091C092809180924091A092B092F099E
:101BE0002D092B092909280926090038E5041F0EAB
:101BF00021091F091C091A0918091D117D20210935
:101C00001F091C0918090009280900092609000CE8
:101C10001C0C280F000021091F091C0918090009C4
:101C2000280900092609000C1C0C280F0038E502C1
:101C300029300000000000007E01FF036017000053
:101C4000E504000015000000A200000000000000F4
:101C5000000000004E180000E50200001400000023
:101C6000610000000000000000000000B419000046
:101C7000E505000015000000A200000000000000C3
:101C80000000000030341E35280C28092909280CD2
:101C900028092909280C28092909280C280C290CAD
:101CA00029092B09290C29092B09290C290928099B
:101CB000260C0039A200280926062406640E3434B6
:101CC00024092409260928092909280E2909260694
:101CD0002409260B23062306240C000621062106D0
:101CE0002306240C24092609280923062306630F4A
:101CF000240923062106610E2D092B09290928092B
:101D000029092B0E2409240C000929062806290C70
:101D10000006290929062809260924092309260677
:101D2000240B64103934000C240923062406640CA7
:101D30001C091D061F065F11000C2109210921093C
:101D40001F091D0921091F091A061C065C101D0E1A
:101D50001F061F065F0E1C091F0E21062106610FBC
:101D6000000C1D091F092109240900092406260663
:101D700023092109230661061F095F0F000C2409AE
:101D8000230924092306240B1C061F065F0F2109C3
:101D90001F091D091C061D065D0E1D061D062009D6
:101DA000200B1F061D0620061F11000C210923060B
:101DB000240B2409240926062806680E2809290967
:101DC0002809260624092806660C00062109230690
:101DD000230C23072407260726092406240664105B
:101DE0003E34000C240923062406640C1C091D063D
:101DF0001F065F11000C2109210921091F091D0976
:101E000021091F091D061C065C0F5C091C091D0920
:101E10001D091D091F061F065F0E1C091F0E210646
:101E20002106610F000C1D091F092109240924093D
:101E3000260923092109230661061F095F0F000CEB
:101E400024092306240B23091C091D06210661060B
:101E50001F0B5F0C21091F091D091C061D065D0EC5
:101E60001D092009200620091F061D0620061F1136
:101E7000000C21092306240B240924092606280620
:101E8000680E280929092809260624092806660C4F
:101E9000000621092306230C230724072607260909
:101EA00024062406640F0009473421062106510048
:101EB00029092809290626092306630C000621069C
:101EC000230623062B0929092B0929062806680C55
:101ED0000006280628062606240C000621062106F0
:101EE000230624092109240928092809260626068B
:101EF000660F280926062406640E240924092609EB
:101F000028092909280E290926062409260B230653
:101F10002306240C0006210621062306240C24098E
:101F20002609280923062306630F24092306210610
:101F3000610E2D092B092909280929092B0E2409CD
:101F4000240C000929062806290C0006290929065F
:101F500028092609240923096C25BE312606240BED
:101F6000640F0038E50500396100000734342B07A1
:101F70002907280E2406230B2406260B1F092109F6
:101F8000240F2309240926092409210C21092409E5
:101F90001F062B0924061F09000B1A061C061D0626
:101FA0001F0621061F091F062309240626062806E8
:101FB0002B0C00092B062D062B0C00092B062D06D9
:101FC0002D06301028092606240921062406640C53
:101FD0001C091F065C061C065A0618091A0B1C066B
:101FE0001D061F062106240623091F0626090038A0
:101FF000E50200060039A200473421062106163109
:102000002606240B640F280926062406640E2409DC
:102010002409260928092909280E29092606240940
:10202000260B23062306240C000621062106230680
:10203000240C24092609280923062306630F2409F2
:1020400023062106610E2D092B09290928092909D2
:102050002B0E2409240C000929062806290C000649
:102060002909290628092609240923092606240BFB
:1020700064103E340039E4011F0E2306240B1F0CAC
:102080002B09290928062906690F00092409290EA8
:1020900029092909280900092606240624092409F2
:1020A00024092409640F64113934003961001D09C1
:1020B0001A06240B240923091F06240B260926349B
:1020C00026062806680968106411000021341E35B0
:1020D0000C091009130910090B090E0913090E093F
:1020E000090910091509100918091009150910091D
:1020F00005090C0915090C0904090C0915090C0935
:1021000002090E091109150907090E09130C0C091A
:1021100007090C090709100907090C09070904092F
:102120000B0910090B0913090B0910090B090909FF
:1021300010090909100915091009150910090409E0
:102140000B0910090B0913090B0910090B090509E3
:102150000C0911090C0907090E0913090E090409D4
:102160000B0913090B0909091009150910090209BE
:102170000C0911090C0907090B0913090E090C09AF
:10218000130918091A091C0C070C41000C0907094E
:102190000C090709100907090C09070904090B09AB
:1021A00010090B0913090B0910090B09090910097A
:1021B00015091009180910091509100904090B0956
:1021C00010090B0913090B0910090B090509090965
:1021D0000E0C07090B090E09070904090B090E0C5F
:1021E00009090C0910090909050909090C09090956
:1021F000110909091109090907090B090E090B0938
:1022000010090B090E090B090C0907090C0907092C
:10221000100907090C09070904090B0910090B0922
:1022200013090B0910090B09020909090E0909090B
:1022300005090C0911090C090C0907090C09070902
:10224000100907090C090B090909100915091009DA
:10225000180910091509100904090B0910090B09BF
:1022600013090B0910090B0902090909110C0709C7
:102270000E09130CD620DF300C09070910090C09D0
:10228000130910090C09070960300C0907090E0928
:10229000100C13090C0C26345100020909090E0C0C
:1022A00007090E06130B050904090B09100C09098F
:1022B0001006150B070905090C091109050C0C0975
:1022C0000909050907090E0913090E091709130C55
:1022D00013090C0913091009180C130910090C092A
:1022E0000B0913091009170C130910090B09090927
:1022F00010090C09150C10090C0909090709100926
:102300000B09130C10090B09070905090C09110C1D
:1023100007090E09130C04090B09130C090910090C
:10232000150C0E091509180C07090E09130C332595
:1023300079310C0907090E09100E2134070C0C091C
:102340001309180913090B091309170913090909B6
:1023500010090C09100907091009130910090509CA
:102360000C0911090C0904090C0910090C090209CE
:102370000909110C07090B090E0913090C091309A6
:10238000180913090B091309170913090909100979
:1023900015091009070910091309100905090C0985
:1023A00011090C0904090C0910090C090209090991
:1023B0000E09090907090E09130C2634E7300C0928
:1023C00007090E09100C0C09070C0C091309100958
:1023D000180C130910090C090B0913091009170C23
:1023E000130910090B09090910090C09150C10092A
:1023F0000C090909070910090B09130C10090B092D
:10240000070905090C09110C07090E09130911091F
:1024100010090B09130C09091009180C1A091509E0
:102420000E0C070C130911090C0907090E091009F4
:10243000130918091A091C0924340C09130918096D
:1024400013091009130918091309110915091809A5
:102450001D0C1809110910090E091509180C070996
:102460000E09130C05090C091109050C1109050CBD
:1024700004090C091009040C1009040C0039E401CA
:1024800002090E09110C8636070F1C340C091309BA
:102490008D361A091C095C0F5C11000030341E35A2
:1024A00024091F09240C24091F09240C24091F09CD
:1024B000240C24091F0924091F0924092109240CBB
:1024C00024092109240C24092109240C230C170CAC
:1024D0000039A200001100110011263400101F095C
:1024E0001C061D061D0E2409230E21091F0E1F099F
:1024F000210E2109210C0006210921061F091D09B1
:102500001C091A091C0F240F0039E4010011000CEA
:10251000170C1C0C170C180F1C0F170F1C0C170C8A
:10252000150C180C170F170C1A0C180F150F180C88
:102530001D0C1C0F1A0C1F0C000C1C091A091C097D
:102540001A061C0B18061706570F000F000E15066B
:1025500015061809180B180618061A061C1010097B
:102560000E090C10210C1F0F000F1D0C00061D0979
:102570001F061F0C1F071F071F071F091C061C062D
:102580005C1021341C115C0C1C0C1F0C1C0C180F53
:102590001C0F1C0F1F0C1C0C150C180C170F170C04
:1025A0001A0C180F150F180C1D0C1C0F1A0C1F0CF1
:1025B000000C1C091A061C0B1A091309150618062B
:1025C0005806170B570C000F1A0F1D0F1C1010097F
:1025D0000E090C10210C1F0E1F091F091F091F0BCC
:1025E0001F065D0C00061D091F061F0C1F071F0795
:1025F0001F071F091C061C065C102B344100210C10
:10260000000B1F065F0F230C000B2406640F210C28
:10261000000621062106230624092109240921098F
:10262000230B2306630F1F0C0039E4011F111F1138
:102630001C111F111D0E2409230E21091F0E1F0935
:10264000210E2109210C0006210921061F091D095F
:102650001C091A09DE20F9301C112634240F000F42
:10266000180F00091F0921092309210F000F00116C
:10267000280F1A0F18031C035C0B5C0F0006230BBA
:10268000210F000F00110039A2002B34B1301C11B2
:102690000039A3011F0E1F095F0F1F0E1F095F0FD7
:1026A0001C0E1C095C0F1C0E1C095C0F1D0E24095E
:1026B000230E21091F0F210F210C000621092106DD
:1026C0001F091D091C091A091C110039A20000115B
:1026D00000112634210E210921091F0C1D09210E8C
:1026E0002109610F1F0E1F095F0F1D0B1D0B1C0918
:1026F0001A0B1C0B1D091C341F115811000000007F
:1027000000000000880102031C1B0000E50200001D
:102710001500000061000000000000000000000043
:10272000641F0000E50400001500000061000000C7
:10273000000000000000000034230000E50200005B
:102740001500000061000000000000000000000013
:1027500030341C35300F2F0C2D0C2B0C280C240C76
:1027600024092609280F260E2409241141000039C6
:102770006100280F2609240928092609240C300C99
:102780002D09300E2B0F280C240C2611280F26099A
:10279000240928092609240C300C2D09300E2B0C95
:1027A000280B2406260C260C240F0038E5046409A7
:1027B0001F092409260939342335280F260924093D
:1027C00028092609240C300C2D09300E2B0F280C5B
:1027D000240C26113034280F26092409280926093B
:1027E000240C300C2D09300E2B0C280B2406260C43
:1027F000260B2606240F64091F09240928093934E9
:102800002F0E3009320C2B0C2B0E2D092B0C300CFB
:10281000300C2D0C290C2D0C2B11280F2609240906
:1028200028092609240C300C2D09300E700C303488
:102830001C352B0C280B2406260C260B260679208B
:102840008E30240F0039E4010009240928092B09DE
:10285000300F2F0C2D0C2B0C280C240C24092609CE
:10286000280F260F2411003961000F30240C003985
:10287000E4013010240C300F320C34117411263462
:102880002B06FF3630033403740974100000303413
:102890001C35110F120F130C140C150C110C130F07
:1028A000170C130C0C0C150C130F003961004100B0
:1028B0000C091309180C10091609180C110918092C
:1028C0001D0C120918091B0C13091C091F0C0E09F9
:1028D00015091A0C130C150C160C170C18091C09E9
:1028E0001F0C16091C091F0C150918091D0C1209CB
:1028F00018091B0C13091C091F091C0913091A09C3
:1029000015091709180C140C130F39340C09130985
:1029100018091309100916091809160911091809C7
:102920001D091809120918091B09180913091C099E
:102930001F091C090E0915091A091509130C150C94
:10294000160C170C30340C09130918091309100957
:10295000160918091609110918091D09180912097B
:1029600018091B09180913091C091F091C09130957
:102970001A091509170918091309100913090C0F69
:1029800039340038E50413091A091A091A09130918
:102990001A091A091A091309180918091809130933
:1029A00018091809180911091509150915090E0939
:1029B00011091109110907091309090913090A095C
:1029C0008D3613090B0913097F360C0913091809F1
:1029D00013090A0913091609130909091109150927
:1029E0008D3611090E3506060C069F360F061206A7
:1029F00015061806B6361C351B0E30347F36130903
:102A00001C091F091C0913091A091509170900389F
:102A1000E504C420E73018091309100913090C0F45
:102A2000110918091D091809120918091B091809A3
:102A300013091C0914091C0915091C0914091D098D
:102A4000130918091C091809130917091A09170984
:102A50000C0C150C8A36130F7F3611301509180926
:102A60001D091809150911090C098D3609090809EC
:102A7000110918099F36140911090C09B6360809FD
:102A8000050946360E350C0913090C090E09100903
:102A9000130918094F361A091C091F0924092609A8
:102AA00028092B096A36300926341C3532090039C9
:102AB000E4011311000021341C352D0F270F240CC5
:102AC000230C210C200C1F0F1D0F1C0C1D0C1C0FA8
:102AD0000039E40141001F0F1F0F240F270F240F9F
:102AE0001E0F1F0F1F0F1F0F1F0F240F270F240F65
:102AF0001D0F1C091F091D091A091C0F25341F0F62
:102B00001F0F240F270F240F1E0F0E3500091F0C57
:102B10001F0C1C351F09230321081F0921341F0F17
:102B20001F0F240F270F240F1D0F1C1024092534FD
:102B30002809290F290F280F280F290F240F230CEC
:102B4000240C250C260C1F0F1C0F1D0F27102134E1
:102B5000240F1D0F51205F301C112D0F270F240C47
:102B6000230C210C200926091F0F1D0F1C0C1D0C06
:102B70001C0F10301D0C29101D0C29102B111E3498
:102B80006B1100032403640B6410000000000000BC
:102B90005201FB03E8250000E502000015000000DB
:102BA000E4010000000000000000000026270000F3
:102BB000E502000014000000A20000000000000078
:102BC000000000004E290000E50200001500000092
:102BD000A20000000000000000000000184801688A
:102BE000184A1143016018480168184A11430160EE
:102BF00017480168174A1140016064204002401ED6
:102C0000FDD115480168154A114009D014481549ED
:102C100001601448006880F3088813480068004782
:102C20001248804712480047FEE7FEE7FEE7FEE74E
:102C3000FEE7FEE70F4810490E4A104B70470000B0
:102C400034100240010000000C0000500800000099
:102C500000000050F3FFFFFF1000005002000000D2
:102C600008ED00E00000FF1F0400FF1F3D2D0008DD
:102C7000C100000840020020400600204002002061
:102C800001E004C0091F0429FBD28B0701D5028093
:102C9000801CC90700D00270704700290BD0C30701
:102CA00002D00270401C491E022904D3830702D5BA
:102CB0000280801C891EE3E70022EEE70022DFE7A6
:102CC000704770477047754600F024F8AE4605001F
:102CD00069465346C008C000854618B020B5FFF7C6
:102CE000A9FF60BCB64600260027C0C5C0C5C0C548
:102CF000C0C5C0C5C0C5C0C5C0C5403D4908490024
:102D00008D46704710B50446C046C0462046FDF7C4
:102D100022FA10BD00487047000000200149182029
:102D2000ABBEFEE7260002007047000002480168C3
:102D300002220A4302607047047C00400E4801688A
:102D40000122114301600D4841680D4B0B400D49B4
:102D5000096819434160110602680A43026001686C
:102D60008901FCD5816802220A4382608168382289
:102D70000A40102AFAD17047002002400010024099
:102D80000000FFFF100FFF1F10B5154801462C393A
:102D900000230B60134A1178134C2478A14200D110
:102DA00010BD11784900114C615E1478312C01D0AE
:102DB00013785B1C1370012905DB00220260001FE1
:102DC0004909016010BD031F00221A60002901D4C7
:102DD000026010BD89024942C90B016010BDC046A6
:102DE0003C2C0140C6000020C700002062000020EB
:102DF000F0B581B00090884B58681022024308203B
:102E000082435A600520D86002071068394908409B
:102E10001060D4680C40012085036419D4608024BC
:102E20001C621C6804431C601C68042525431D604B
:102E3000314D2C78002C02D1304C24782C702E7817
:102E40002E4C2478B44201D9761C01E0264600D2EB
:102E50002E702B4E3778002F01D00F2600E01E2653
:102E60002D787519A54210D27C1CE0B2A04200D189
:102E7000074623480770032F16D01F2F1CD1009838
:102E800000281FD07C1E022013E03C1F009D002D57
:102E90000D461A4E02D0E1B21C2918D3E0B200242C
:102EA0001C280BD320460AE0009800280CD07C1E7A
:102EB00003200D46114E02E0002006E001201049DB
:102EC0000C7004E0022000E003200D460B4E194672
:102ED000083909684907FAD5996B13682B401360C4
:102EE0003170D16829400123DB030B43D36001B06B
:102EF000F0BDC046FF3FFFFFC8000020CA00002011
:102F0000C9000020F0B583B0002849D10091424BA0
:102F10000024DC6058680822104310218843586060
:102F20001A62052006070192B262306840273843D2
:102F30008025A8433060204619680122029211437F
:102F4000196072B6C021C94332680A403260F26823
:102F50000A40F260F2683A43AA43F260F2680A401B
:102F6000F260196804220A431A6062B619460839E9
:102F700009684907FAD50199B16231683943A94313
:102F80003160996B401A029989024018611C042C27
:102F90000C46D1D321490B78072B04D8581C087054
:102FA000002003B0F0BD1E4A15786900117084B28C
:102FB0001C4E33889C4203D80746002B03D003E005
:102FC0009F1D002B00D10746378038B2EA07144B0B
:102FD00003D14B229200801800E09630A042029A62
:102FE00002DA01200143197019780F2008400728E0
:102FF00003D00E2803D1022003E0104601E0002098
:103000000290009A002A04D0029A002A01D04908AE
:10301000197003B0F0BDC04608240140CF00002065
:10302000CE000020CC00002000B5A9B0F34817382E
:1030300001210D910F04F24AF24D04242C606A60C4
:103040000023AB6005262E6029683942FCD0401E63
:103050000104F2D10D980207EB48001F01681143EB
:1030600021900160E948016821430160E6480C387D
:10307000016823220A430260E14A30072790006872
:1030800026900C20249024982699814326912698F6
:1030900027990860C86808210E910E990843A0433B
:1030A0002799C8602C606A60AB602E60286838423F
:1030B000FCD02798006980070BD57D2000012C608B
:1030C0006A60AB602E6029683942FCD0401E010462
:1030D000F5D15F20C04303905F30CD490860279A47
:1030E0001060CB60D360402595611068C9490840E5
:1030F0000D9909031991401810609462106810210D
:103100000A91084320210B9188431060106824998C
:1031100088431060D06820430E99C9430840D060AE
:1031200095610C959562BC48037010682043084077
:103130001060AB21072222932396269406E04900D3
:10314000A562521E00282C46AE4D1AD048B2002867
:1031500001DA182000E028200225279C259525501B
:10316000269DA5611006EAD12368249EB3432360FF
:10317000E36804261E4308239E43E660239E229BA9
:10318000DDE727980C9981612C60842005906860A8
:10319000AB602E6028683842FCD09B4A1068412101
:1031A0004901069120391691084310600D9A90024A
:1031B0001090401E994EF0609103706A149108437C
:1031C00070622298706030462038016811431346BF
:1031D00001600D20C002314608390A6802430A60C6
:1031E00030680A990843306003201F9080042799B3
:1031F0000A688243D80410180860486A0B9A104382
:103200004862301F026868231343036030681099D6
:1032100008433060824A10680E990843A04310604A
:10322000106A0B99084310623068069A10433060A8
:103230000D9B58037B491B90086030681043306039
:10324000143E049633601E4618056F490A6802430F
:103250000A60D9077448209181609B05734A116800
:10326000194311600722C260802107910162016841
:103270003143016001682143016001460839096852
:103280004907FAD5806B6A4908706A49229808563E
:10329000C1B20028019105D43F29279806D97F2182
:1032A0001F9116E0FF201F90279812E01F2902D9D6
:1032B0003F211F910DE00F2902D91F211F9108E026
:1032C000072902D90F211F9103E0032900D81F9A73
:1032D0001F9201680D9E314303462598C243114059
:1032E00019604B480168314311400160464801684C
:1032F000314301604A4B19680320029081431960F1
:10330000D96831431140D9603F494B481F9A027038
:10331000086A30430862086A8007FCD50D9EB00435
:103320000A4649690143516121990868209A10436E
:103330000860424B184608380168259A114301601D
:103340001868304318601098986070043549086018
:10335000FCF708FF30020890F0030990384A108803
:10336000411E1180002800D032E3354835490180E4
:1033700035480078354909780143354800780843D5
:1033800000D06FE133490888401C088080B22028B3
:1033900000D26AE1012227998A621D481C9282624A
:1033A000402088611D908862086804263043082206
:1033B0001F9290430860B9200721219604E0400045
:1033C000A662491E002A47D042B2002A01DA18221A
:1033D00000E028220223279C2093A350A6610A061E
:1033E000EDD12368249EB3432360E368219E3343D9
:1033F0001F9EB343219EE360E1E7C046FF03000048
:1034000074BB000010E000E04010024010ED00E04E
:1034100000140050FFCFFFFFF9010020202C0140D5
:103420000004005000E100E00824014008270140AA
:10343000E001002068010008D1000020107C00405D
:10344000D4000020F205000010020020F20100204C
:10345000300200206000002027981D9981612E60B5
:10346000059868600023AB6023982860ED4C2868BD
:103470003842FCD0279A1D9890611068302188430B
:103480001060D0680A9908430B998843D06010688F
:10349000249988431060D06830431F998843D060D6
:1034A0000A20E14A2E606A60AB602399296029688E
:1034B0003942FCD0401E0104F4D104980360E3615A
:1034C000A361204610381E9303600168C907FCD031
:1034D0002068069988432060D4490868209A1043E0
:1034E000086027204002D24A116801431160D14E82
:1034F000304638381E990160BFF34F8F30BFCE4A37
:1035000011681C9C2143116031463C390A68CB4B41
:103510001A40CB4B1B6813430B602206403E3368B6
:103520001343336032689201FCD50168209A11433D
:103530000160219E016838220A40102AFAD12E60CB
:10354000C04868601E98A8602398286028683842A0
:10355000FCD0BD480078BD490969C9070ED1421C9D
:10356000D1B2914200D10846B7490870032801D171
:1035700000F0C1FF1F2808D100F0BDFF001FC0B23E
:103580001C2814D3B0481E99017001242046FFF76F
:103590002FFC00280BD10D991E98C9079CD0C0B2F2
:1035A0002146FFF7AFFC002100282046F5D09D4AB8
:1035B000106806990843106004981C990160279BC5
:1035C0001D9A9A611868A249084019990843186021
:1035D0009E6218680A9908430B9988431860186816
:1035E000249988431860D86830431F99C94308401C
:1035F000D8609A619A62002296481E9202701A68F8
:1036000032430A401A60AB210722209805E04900A6
:10361000A662521E002B269C17D04BB2002B01DA5B
:10362000182300E02823279CE050A6611306EED162
:103630002668249886432660E668219806431F98EA
:1036400086432098E660219EE1E727991D988861CE
:103650002E60059868601E98A860239828602868E6
:103660003842FCD000207C490880279A0C98906151
:103670001068302188431060D0680A9908430B997C
:103680008843D0601068249988431060D068204334
:103690000E998843D0602C60E42068600020A86008
:1036A0002399296029683942FCD0674B1978674A09
:1036B0001269D2070AD14A1CD0B2904200D1014609
:1036C00061480170032908D10A4607E01870091FF4
:1036D000C9B21C2906D2012004E000221F29259826
:1036E00000D01046279A0C9991611168584B1940E7
:1036F000199B19431160946211680A9B19430B9B33
:10370000994311601168249B99431160002351492A
:1037100020930B70D16821430E9B9943D160002800
:103720000799219140D000284AD002285DD0012875
:1037300000D038E1219840B2002800D5A8E02198B7
:10374000C0B2410600D407E144490978491CCAB215
:10375000032A00D90121414A11700A0600D1F5E07F
:10376000CAB23F4B1B88934200D1F5E03C4B1A8014
:10377000089A3C4B1A8000223B4B1A80099A3B4B1B
:103780001A80491EC9B2249A5143394E7258394B96
:103790001A60761873689A1837490A60318949089F
:1037A000364A11803649D5E00020FFF721FB00287A
:1037B00001D00E9901E07F21C94321910028B4D1A5
:1037C00000210D9E1F91F0070CD0C8B20026314693
:1037D000FFF798FB01210028F5D00C9921910228D0
:1037E000A5D102E01F980228A1D1219840B200285B
:1037F0000AD50420234900220A604031401EFAD134
:1038000021480280214802702198C0B2410604D5A7
:103810000021154A1180124A1180000700D5BAE034
:10382000C1E0C046202C014074BB0000107C004069
:103830000070004040100240002002400000FFFFE6
:10384000100FFF1FF40E0000FA01002000040050CA
:10385000FFCFFFFFF901002060000020DC00002006
:1038600010020020040200200C020020140200209C
:1038700088460008FC010020000200200802002009
:1038800018020020E0000020F0010020F2010020DA
:10389000F44A107823994843401C1070F249097883
:1038A0000140F24800780818421C019B1146D21AC8
:1038B000C8B29842FAD8ED4A11700A0601D100F058
:1038C0000DFEEB4A12788242209B00D137E7E84A8E
:1038D0001170E8490B70E8490B808000E7494058B7
:1038E0004218E74802609079E64908701F92908874
:1038F000E54908800399E54807E000220260183195
:1039000040305B1C002900D119E71F9AD679B342D9
:10391000F3D220931E9140210646FFF7CDF91E9861
:103920001F990818014668313160816ED34A8918A1
:103930007160C16E8918B160416F8918F1601E997C
:10394000209BC06F821830463261D8E70021D04AF0
:103950001180D04900220A80000724D5C14A10787E
:1039600023994843401C107007210140CA48007841
:103970000A18511CC8B204231B1A00D200239A183B
:10398000032316469E43891BC34B1970FC23134027
:10399000984200D065E30020C0490880C0490880F3
:1039A00027980C998161B2480078002810D0B74858
:1039B000C28B28201826D107014600D031460123AA
:1039C000279C6350910700D53046B6490B50269C82
:1039D000B54822990160A74A1078411E117000284D
:1039E00000D0A4E20021B14815910180012113917A
:1039F000A0480170A0480088002801D0401E01E0C6
:103A0000A14800889C4908809E480378159A104672
:103A10009E4912921A4612E01F9A9161209A1A99B1
:103A200049788038484312994118A0481291018082
:103A30001F994031179E701C032E00D325E217906A
:103A400008680028F5D0084634301A908678159812
:103A5000401C1590002E1F9118D087480088002820
:103A600020921F9900D091E1701E1A9EB070488D6F
:103A7000002800D18AE1CA8C098D914200D87DE1ED
:103A8000101880B2884200D37CE17CE10B8C393184
:103A900018910D990DE00F2101408006800F189AB2
:103AA00011541E9B209A219EF0B2414241410028B0
:103AB000D3D121962092581C1F9A1E9010845668CC
:103AC0001D9398B240001C96305A00235385D3842E
:103AD000D0831B9A104228D1C204D20E57D0511E57
:103AE000CEB273A18A5D1A998A708106219216D08E
:103AF000149908425FD120990A183F2111910A4078
:103B00007149895C343A0C2A00D30B090907C90EA4
:103B10006E4A525ADA401F99CA84010670D41E9B1D
:103B2000209A1F9E4006BED459E0199908420DD133
:103B30000105890F189B5A5C002AB2D0521E5A54B4
:103B4000634908401F9908840346ABE71699084269
:103B50004CD0072109020840139A5102884200D133
:103B6000C7E0110288421D9B00D1B6E00028209AD0
:103B7000219E00D0CFE09B1C1F9E33841E9880B2F4
:103B800040001C99085A3D494018B0608BE7420636
:103B900081D48206219E00D46FE11F210840209A23
:103BA00000D1B3E0121837490A70102800D2B2E0F1
:103BB000203A0A70AFE01D9A921C1F9E3284C1B257
:103BC000B183B36113461E9989B249001C9A515AB8
:103BD0002A4A89187161209A400600D563E70020BF
:103BE000F0851A99C870087170865CE710990842D0
:103BF000209A2ED1364908401F990884034652E77F
:103C00000F921E9989B249001C9A515A3A46803A3D
:103C10000A40802A04D11D9A931C1F9A1E93138474
:103C2000072E00D27BE74A0B00D078E7802900D22C
:103C300075E70A46119B1A4000D170E7209A511887
:103C40001940214A525C34390C2900D281E0130911
:103C500080E08105890F219E7944097949008F44CC
:103C600039655C6CE0010020D1000020D00000200C
:103C7000F2010020F8010020EC010020680100089A
:103C8000E4010020F4010020E8010020E000002011
:103C9000100200200C020020DD0000202C02002079
:103CA0003002002000140050D8000020F001002055
:103CB00002040608090C10121820243040486090B5
:103CC000C05054A8FF0000002E4600086E460008B1
:103CD000FF0300001A99087038E09B1C1F9A138498
:103CE0001E9880B240001C99085AFA494018D060CA
:103CF000D8E61D9B9B1C1F9A13841E9880B240001F
:103D00001C99085AF34940181061CBE6F248006844
:103D10008279F24802701E9BC6E6C0B2EE4909687D
:103D200089884143C809EE4908800FE0C0B21F9A54
:103D3000116889684143918508E01F9A53861A9952
:103D40000B71C0B211680969414311861E9B209A0C
:103D5000AAE60023E3A1895D1207D20EE74EB25A0C
:103D6000DA401F9E32850F9B934201D2D21A00E0A7
:103D70009A1A5143090B71851E9B2CE7101A80B2C9
:103D8000884200D80846209A1F99C884C88B8006AC
:103D900000D14EE6888D00281DD0C98D002916D18E
:103DA0001A9AD37821931F9BDB681D93219E9E193D
:103DB00073781E9316781E9B5E43360A5670219ABE
:103DC0001D9B1B789A4202D2521C1A9EF2708142AD
:103DD00005D8481C04E01A9A1078507002E00020C0
:103DE0001F99C885C88B400436D488688A8C0E46D3
:103DF000110A405CF18C8A18B284328E002A00D1FC
:103E00000CE6728E002A1DD11A9A137932691E921D
:103E1000D218527821925A1C1A9E32711E9E367800
:103E20001E961D92D6B21E9A964200D81D9B1A9AD3
:103E30001371219B802B02D9FF2212029B18591863
:103E40001F9EF184328E718E491C8BB2934200D337
:103E500000211F9A5186E1E54B690E468969080ADF
:103E600080B218188078B28B8A18B2611B881B0246
:103E70009A4200D9D0E51146CEE5C807209A00D174
:103E8000EBE500201F990860D3E51598C0B2411EEC
:103E900088419B49097800290D9900D001460029E5
:103EA0008D4A44D11068006800283BD0002695490F
:103EB0000E7095490E808749431813609879874999
:103EC0000870209398888649088003998F4806E0F7
:103ED0000022026018314030761C002927D0209A39
:103EE000D2799642F4D21F9140212190FEF7E4FE50
:103EF0001F982099081801466831219A1160816E37
:103F0000744A8918219B5960C16E8918219B996058
:103F1000416F8918219BD9601F99C06F8218219821
:103F20000261D7E700207A4908807549087078480F
:103F30002299405E774A11680B1813607648008812
:103F4000002800D12BE1754801687548026891424C
:103F500023D2219373480288089B1A4223D1134627
:103F6000714803408342219B00D012E12091D2B2DC
:103F70006C4802806D4800881F9002B252006C4865
:103F8000865AF3086B4800781E90020950074FD5F7
:103F900031469B1996074ED44FE06748229901801D
:103FA0005D480180FBE0D2B2099B1A4302800A7887
:103FB000604802705D480088209000B240005C4973
:103FC000085AC30856075D4912D51B18960711D425
:103FD000D60701D080081B180F2002400888082A45
:103FE0009BB20CD2C018564B98420BD3544809E0F0
:103FF0009607EDD546089B19D607EBD1ECE7C01A1A
:1040000000D22298219B08805007000F4D4A105A79
:10401000209A8018454A108000B2002805D45928FB
:1040200000DAABE058201080A8E000201080A5E066
:104030003146960701D54E089B19D20701D08A0850
:104040009B183E490A881E9E76B2002E9BB22ED443
:104050000646D2183A48824200D3394A219B30465C
:1040600029E0C8B238490988814200D19BE4364929
:1040700008800899354A11800023354A1380099A2F
:1040800034490A8034490B80344A1370401E80B290
:1040900024994843324B1958324A11601818426823
:1040A0005118314A116000894008304977E4D21A2A
:1040B00000D20022219B0A80020F2248825A1F98B8
:1040C00012181A48028012B2002A51D4592A51DB20
:1040D00058224EE068010008E4010020F4010020AD
:1040E000E801002000000000000000F0B2847557D5
:1040F00041392B1C15333118100000006E460008A2
:10410000F2010020F8010020EC010020E000002076
:10411000F0010020D800002010020020FC01002047
:10412000000200200402002080800000180200200D
:104130006C4500081A0200200C0200201402002026
:10414000FFFF00001E46000830020020240200206D
:104150002C0200203402002038020020F901002047
:10416000AC4600081C02002020020020280200208B
:10417000002202802098401CEB4A10600888099AAF
:10418000504000B299224243100E1018000AE54A2E
:104190001080E6480088E2490A8810180880002646
:1041A000E048825F9918E9480160DA4801880029EF
:1041B00000D169E1E2480368E24801688B4230D2ED
:1041C000DB4A11880898014230D10846CE4A104097
:1041D000904200D052E1C8B2D5490880D748008843
:1041E000219000B24000DA49095ACA08DB48037836
:1041F0001809460720964DD5521886074CD4C0079B
:1042000001D088081218CC48008859B2002991B210
:1042100000D511E14018CF49884200D20FE1CD48C6
:104220000DE1C4480680BB4806802DE1219320960D
:10423000C9B2099801431180B24801780029259E2E
:1042400000D0A3E0279A94620C98906211682143F1
:104250000E98814311600722029B04E05B00A56277
:10426000521E00291DD059B2002901DA182100E0A0
:104270002821279C6650269DA5611106EED126684F
:10428000249886432660E6682E430E988643E660AF
:10429000259EE3E78607B2D54E089219C007B0D134
:1042A000B1E7279A116829430E988143116021983C
:1042B000020C072304E05200A5625B1E002916D001
:1042C00051B2002901DA182100E02821279C66500C
:1042D000269DA5611906EED126682498864326609E
:1042E000E6682E430E988643E660259EE3E7279A0C
:1042F000116829430E98814311602198020A07230F
:1043000004E05200A5625B1E002916D051B20029BC
:1043100001DA182100E02821279C6650269DA5611E
:104320001906EED12668249886432660E6682E4357
:104330000E988643E660259EE3E7279A1168294395
:104340000E98814311600722219B04E05B00A56267
:10435000521E002916D059B2002901DA182100E0B6
:104360002821279C6650269DA5611106EED126685E
:10437000249886432660E6682E430E988643E660BE
:10438000259EE3E70D995F4801705D4D0722279C4C
:1043900008E0279C2699A161A161A162511E120625
:1043A0000A460CD02899490028AB19702169890761
:1043B000EFD50121289B0B4328A90B70E9E7219831
:1043C000411C5F48016028A90A78644802705B4874
:1043D0000088219001B249005D48415ACB08560738
:1043E00000D55B18269C960701D54E089B19D60769
:1043F00001D089085B18209E0F210A404E48018891
:10440000082A9BB205D2C9185248814204D35149A7
:1044100002E0C91A00D23146474801805007000F18
:104420004D49085A219940184449088000B2002893
:1044300016D4582812DC15E0401A00D200203E495C
:1044400008802098000F4449085A219940183B4998
:10445000088000B2002803D4592803DB582000E06C
:1044600000200880344800880999484000B2E621BD
:104470004143080E0818000A2E4908803248008877
:104480002B4A11880818108000202A49095E2F4EF7
:104490003268511831601C4A823A914202DD1A4951
:1044A000813903E0194A9142114601DA274A116025
:1044B0002B490978491CCAB2322A2A4E00D0084634
:1044C000224909683278C3B29342FBD0244B1A7850
:1044D0005200254EB1521870FEF740FF0E4821469B
:1044E000002202604030491EFAD10C480280084880
:1044F0000270FFF724F9401E0870FFF758F8C04615
:1045000010E000E0F9010020808000000080FFFF43
:10451000F201002030020020E0000020F001002025
:10452000040200200C020020FC01002008020020F0
:10453000240200202C020020340200203802002037
:104540001C0200202002002028020020D8000020A9
:104550006C450008FFFF00001E4600083A020020DC
:10456000C7000020C60000206200002007000800ED
:1045700009000A000B000C000D000E0010001100D5
:1045800013001500170019001C001F002200250051
:1045900029002D00320037003C0042004900500045
:1045A000580061006B00760082008F009D00AD0016
:1045B000BE00D100E600FD00170133015101730177
:1045C0009801C101EE01200256029202D4021C039E
:1045D0006C03C30324048E04020583051006AB0696
:1045E00056071208E008C309BD0AD00BFF0C4C0E99
:1045F000BA0F4C110713EE1406175419DC1BA51E35
:10460000B6211525CA28DF2C5B314B36B93BB241A8
:1046100044487E4F71572F60CE696274FF7FFFFF61
:10462000FFFFFFFFFFFF02000400060008005859CB
:104630005A5B404142434445464748494A4B303122
:1046400032333435363738393A3B2021222324257A
:10465000262728292A2B101112131415161718199A
:104660001A1B000102030405060708090A0B2D0E98
:10467000050FEA0FDC10DD11EC120C143E1581164B
:10468000D8174319C31A00007A6B0008DD07000031
:104690002B000000E5630008950700002B000000D8
:1046A000DC460008091D00002B000000000000008F
:1046B000B2201F0057000000B2201F00729C1A0099
:1046C0005700000024BD3900C0920C0057000000C4
:1046D000E44F4600FFB0210057000000000000003A
:1046E00000000000000000000000000000000000CA
:1046F00000000000000000000000000000000000BA
:1047000000000000000000000000000000000000A9
:10471000000000007F8BDE3077099C20C692999BB9
:1047200007B4992038093B986C848C581ACDB7A1EE
:1047300063B2CB1B7113D0CA4822C08C5821BB3B3B
:1047400021289B78B1AD2207D0994079098C281295
:10475000C1B91203B89A14D1382829DF2196A1C90A
:10476000495090DA296290CA1823A1BA1933828E6F
:1047700090803804B8DE22142B8F2802C1AA41820F
:10478000A99021D85821BBFB04048A0F12919929C2
:10479000309D1193991F508899A934B38E3812FB1C
:1047A0000112991D219890C003219F3083EB293479
:1047B000BA8B42A2AAA438820F0907E82848890BBD
:1047C00001B4B19390229E4822AD2B72B09993937D
:1047D00098401D018C3182FB2A34D89812883A39CE
:1047E0001D808C0592D93C06B991229A6A1919AAA2
:1047F000309300FC1086A809328C1940A8AC25A083
:10480000B2E913120D4C18898923E00A149898898B
:1048100024088E38A2B1BA37C02B30889A2923F1E8
:10482000B90593AA2C64AA2B03B1989887C2984122
:10483000089B4B86E8810399890103B81E6098990B
:104840000006CA20209A090141AA2F30890B28842A
:10485000EB12A2080999450A0F38C3998391E20126
:104860002910BB6B72AA1D4299891811B1F0A214CC
:104870000A1B681A3B2B90C2F283A6AA22029C193B
:1048800023900F399192F940002B1D10A1B2B8333B
:1048900096DB2004AA8822F218A29924993E4A881D
:1048A000B812E309149A0A13D192E10015E908231A
:1048B0009B2890F39807C920301C098A3281BD39A2
:1048C00027CB388008C1A292A5982923F82B33E181
:1048D000BA24A3AA28104A82BF32139F1934EA4986
:1048E000291AA8A2A4A3092C70A08D42B1BB1484DC
:1048F000B998142A40AF2103AC1952980C1018B281
:10490000E8949290901945FA1812D019218A011D45
:104910003900F2882110AB0B55D18A23B8100A4018
:104920006ABB209311FB3C17DA289291B18812815F
:10493000AA5D0000AC3087F911811A083B10B0F075
:10494000039191CA4104BD40929AA39013A29F5132
:10495000A080995995F9828209193A39A8AC34D3C3
:1049600019A91827FB20201C981830B8C915B18048
:10497000C83016AD280399C08025998D03D3209B9C
:104980007B82F88111088A3A21B88C23D338F91830
:1049900016CA182109B91906888B02D223F92B25CA
:1049A000D80902A2801E11001D2AA258A91D34BADE
:1049B0001B3290A8BA26B3AB7A0089A59D73981CC8
:1049C00010C2929820929A5B110B92CC72A28D40E9
:1049D000080AA03893F08041AA83D950828E1092A1
:1049E000A0B10104C98843B920D94987CA301089C8
:1049F000A94882F180218A10F81005BB48208AD08E
:104A00000103D8A1229912FA2887C9101109993AED
:104A100023CA99859169D91806D910201A992A3381
:104A2000EA90138920F80917C9080309998936AB58
:104A300099869049B83B07E80011088A2A13D8885C
:104A400002914AC92917CB108391CB3097B0291115
:104A50009982FA4094BB58110A9C41921D19918089
:104A6000B4BA54A20E49280A8C41901C10A039A255
:104A70008D71A08B4288C01A259B19289883F10953
:104A800007B9193280AE50A28A019010A28F6298A5
:104A90000C4911C91A339A1A800814EB2805D9C198
:104AA00014008E21801B888193982D5098D91087EF
:104AB000F0100199811809B2D21182A83F7B880BAE
:104AC00022A8191808498A0C2498EC84850D38907E
:104AD00009199191101F30A0F98297B80102A9A27B
:104AE000211AC0C350291D3F20C91811A8A083B2A4
:104AF000A2A09305A99F72B1AB1798A812180AD06B
:104B00008301008F79808C31908A38B2292A1C0168
:104B1000B7F031100F28909820911A190810C2CCC4
:104B200062B48C50800B5A0898901288094F7B9978
:104B30000912B08811A1883A22CA391E63F9298363
:104B4000B0B03218AA5B11AAB5F105D080139A094A
:104B5000312B8C31090B020FB7F30101091C40A85E
:104B60008A23C10918780A1E12A8B884A4894908A2
:104B7000C0E482029C58109B2902B8A18418091F26
:104B800003F32B969808592A8A0822991F40B81CCB
:104B900024C9089390300D29A5D812820F40898A24
:104BA00082C491002A58AA2883FB22A38E20111DBB
:104BB00019C084C191038C7A109C1083C901A2286A
:104BC000808B44CC4803AC4A12CA20C2B197B101D1
:104BD000904B21BB3C15D900B38021996C9A10965B
:104BE000C84911AB10A3B897A100986A20CB3A87A7
:104BF000D882A208302C0A9904B3EA2104AC30B25E
:104C00000B16AA380A7A29DA0097B831181E10B0A4
:104C1000B29104080D6A81AB32C119033E3C1C10ED
:104C2000D3D022A22E490A2A91B1A130308C1F3153
:104C3000C10C329A7B080AB0A6A3812E48A9889499
:104C4000A020201E2B30C0A88107B97A809A95A198
:104C5000914A282BBA21A7A9420A3C388ACB04A63C
:104C6000B12B70892C81E1A3A4085C2989A882A5B5
:104C7000A812884B498A9B24B2C82905E018018AEA
:104C800012A1BB7B04D8B005A28B23AA38A5F2A839
:104C900006181D4B81A993812A488A9C2394D94ADE
:104CA00032AD4888B0A5931D6A18B8A887902939F5
:104CB0002C2A80F98294B11A718A0981801881FAAC
:104CC00002329B2F30AA0982B380049F6938AA1D43
:104CD00085C01028191B011F1883F80003AB382169
:104CE000B929C3A904A6BA70118F1092E182184B9A
:104CF0004B989985B10A51880B01A1B112F1382264
:104D0000AF1815D80028190BA2A115898F50819BC7
:104D10008022B84A195A81DC8017B8086A198AA11A
:104D200083128D1C51D2A09184091A3800A8AD704D
:104D300093AA0923A0F802122C8E2885C09803009C
:104D4000B92887090B4D02E1A00201C828411C8B3C
:104D50002914F2980130B81C23088E2A04D59881B2
:104D600030B03B4888DA8106C2992858900D1191DD
:104D7000D80052B09A297299A903A4B83B64A8AA92
:104D8000297398AA2102A90D5280BA0B17919B286A
:104D900022B80D1133EA1C20028A2989C08203003F
:104DA000F84A92A98927A0C8991315C099802802AA
:104DB00000BA598900818A2397AD1B2503F99921EF
:104DC00004B92B5100AC0A33249E0A31A2AAA226B0
:104DD000C8A93832898D58188C2933C0B98906087A
:104DE000B951929B9B6312C09B8122C8988522ABCC
:104DF0009C4221089C0A13DE0143089B2DA296B217
:104E00008821C8D81022A28B0148AA7B31C19A0AF6
:104E10002D5829BA210598D90016089E1802B08A83
:104E20003006B00923981F9997918A08221ABC036B
:104E300017F39830391D2B29000C093192986C32E8
:104E40009E9901B5B11020A8A8C387213A2F3C2B09
:104E50001D1000A8B096183A88B7B488382C1A08E4
:104E6000002A1A21D191A7A4E2A2C3D3A104182C2D
:104E70002B1911D0B3B692882999118988518B4A80
:104E800098A6B2C7020B90936C4C1A98A1A2A6A147
:104E9000A3B2A3E38093290B81D51028BA046C4CEC
:104EA000098900009008D281188979194B9992F1EB
:104EB00012B802580F80110A1A02A198205D291E0B
:104EC000391B408B4E18893B782D198829002B18E7
:104ED0004C5A1C8920980931190C1B45CA20182BE3
:104EE0002E680CB192939189B007B11C31880D598D
:104EF000882A904A6A2BAB86914D298989B4B2934E
:104F0000B6A802B3A2C2C294A2A0012089C901938B
:104F1000880011F009049080194B99A7A905C2A82F
:104F20002020B90BA4C4C39231298D9205C1B1A32D
:104F30001A2014F19A630A1D598889B1B2919134EB
:104F40001E3A1AE280701C3F7B100C2A38890A181E
:104F5000118A9952F79068088A0912A0992093B98A
:104F6000890503FB58301F3B29098A0102A93A38F9
:104F7000A0A043880B1994F81920328E8891811BC8
:104F8000890408F3A97911E00190908A309701997A
:104F9000A8A99443AB30F9903349C11980198BC744
:104FA0001298CB252B0A1F1100C8A1B4A271308B17
:104FB0009D010B8280207AC3B81028890F39599A35
:104FC0001C1298D1339900D969088A0230F30AA4D7
:104FD00008310C099700191CC001B20B828215130D
:104FE0008E91A50C9080F10181A806B891A0B7B26E
:104FF0007091A911B133CB580D1008A2970189B255
:105000009A891FA141193C9B1719988A208F098101
:10501000419182B3FB92791990A022B1901A879A9C
:10502000A284FCF7F7855F2B293B99C2819231A9B5
:105030009A9A71E233BAB41E201889BB37B3EA0BCF
:105040006203CB0C41239C9D4823D8AA1116B19C26
:105050001963A1BA9945018C8B0107B09A01259972
:10506000AB1964C2CA025091CA883396BB2A411454
:10507000CB8C2234CA0E1131A8AD4831B1DC1121DC
:10508000A3DB194292E91A3220BA9E311499BD303D
:105090000690AA2B6391C99A2501AA9C2225A9AC46
:1050A0003954A8C8095182AABB5286898C3942A0BA
:1050B000BB2B72939BAA1317A8AC2052C1890A314B
:1050C00033AC8F0124B999983484E99A1324C98A9E
:1050D000086281DA892342CBA88134C3F88822226E
:1050E000AC0A0834B3FB1A4211DB909134A1FA29BF
:1050F0002112AD988116B1DA284181CA88015398EE
:10510000BC4A3282CD80810690CA3821A3AC0910F6
:1051100045A8BC492294BC91921798BB6A11B3ABC5
:1051200080202699AE2023D3AA8021538A9F38213C
:10513000D38A0921529A9F0133C0990941419B8F1B
:105140001033D8982A3023FB9A021799A90031848A
:10515000DB9942239CAB4040B3DB897281A90B01F0
:1051600025B0BB2C4580BB8913178A9D281598AAAA
:105170001951839C9C3333AC8D287289D818319295
:10518000BBA943159ABD2125B09B1B7408C9893260
:10519000139DB94103B1BD3873A0A90A5310CA8B3E
:1051A00032169BE94028A1CA1052A0C82A3121BC5E
:1051B0008C51129ABC4248C1C8285198E0282882D4
:1051C000C9993303C98E2131C0DA304198F80058AB
:1051D00008B9884210E9A01222B9AC5140A8BB011D
:1051E0001592DB0985850B8C8385881E2983900E9B
:1051F0003911C2C8284080E98022208DB986210B50
:105200008C81151A0E0883A28A3C2191BA2C782829
:10521000BAA0625A0BD8940188B8A594181C190139
:10522000901A3A20A8C9922499E0C3A5B4808802B4
:10523000805C4D3B1A091808A8B3B6B4C2A301A1FB
:10524000A0A2435F3D2B29899080B3C6C3A2828070
:10525000082929094E3C4A2B1B2829D8D4B3A4A2DB
:10526000C2A3114A3D3C4B2B2A2A1990B1C4A3C4B6
:10527000B2B3A4D3A3106B4C2B3B2A0990A1A4B3C7
:10528000C3C2A3A2A2A09681084C6B3B1C1A019139
:10529000B0A10492C9880392D8004200E9888293A1
:1052A000E9A086A3A13A5A3B0C2A49191B6A208B14
:1052B00089491AE9B313492A0A403B1F1E10181ADC
:1052C0004A6A2A1B890890E1A394926B4A898889CB
:1052D000C1B3C5938100382A0C8A8A790888807105
:1052E0008990190AA3BACA1694E3A2010099898881
:1052F000A9B69692111BA1189B9B83F7C2841189B2
:1053000088181D481A0E10482B3C19194A1F3809D5
:105310008B2188E8B6034A1D4A1A19080888919A11
:1053200025A00A0C83A7C35B80B0E2020198AA06FD
:10533000A21B80A7C1E4B3B5C4C3A3A2305F2B896D
:10534000A1C4C3A39110291A2A19182A4B2C5C2B2B
:10535000394D0BE3C5A300392C084C0908A00120E6
:105360001E1829999000C6C492488A801892F3F3B7
:1053700092A2C28281A1A01083A9C903961A3C10EF
:10538000181E8894A890D4A5482B5C1A2A292B3B78
:105390003C6C1A2A4A3A2E1A91A180A0A6A381B881
:1053A000C5B5B282A083909083019B4C2D01592FEB
:1053B000A0A491389BB2B50098A6A2A48109193D7A
:1053C0003C8BB5321C7B5B0AD0B5B3016B3B1A90AA
:1053D000A2A2A2802A4D4A4C4B2A3B0AC1B4493CA6
:1053E0003A2C80C2A3A1B2C28110195C394A2B0B9E
:1053F00099940B20997939601C3B3C3F8990102887
:105400001A69198A099AB600128A7B4908C8883A2B
:10541000202B8B21040D02E2C2E2B294C3B48101BD
:1054200028CA949098000A70185B3C3C4A8A1A205B
:10543000B919153A8A3A7C2D98C3112B89603A0C18
:105440001A400A3C2A3A2A4C80C8A187082D19B371
:10545000B498682BA89085A0D18301888921A8CC15
:1054600097D3A3911818880980711D4E08908089E0
:1054700002B0A113B6C893A286D01993089B172A2D
:105480006B1E2918B00A33909C5A319A0F209399B9
:105490002F21B0C0A1B7B6383B1B201BD8B49688CB
:1054A00080395B0A4F1989B428803A8D404B0BA391
:1054B000318EB2D5828828120CE90589C8A4234E02
:1054C0009AB2842AA84819C4A05C2919890198C4F1
:1054D000591DF3A4782CB8B5114B1AB1A308199033
:1054E000B295829A1A7D0990A5212F0BA2A4584D3E
:1054F000A9C293202BA0B5A1297B1989B3A43C3E56
:1055000090C3A3202D8BA395693D99B182210AC137
:10551000B4D4813918B8B6212F1A80C3213E99C25C
:10552000A3311D90A2B2185A000BC3221F0981E5B6
:10553000113A999891140CD383892A5A90198012A0
:105540008FA024A9582CF39128189AC6121B8A02FE
:10555000A27B3B08AAC205092909E7813919C0B312
:10556000232F8A92023C4B98C100019098A6C390C9
:105570004908F301390AAA94421FA18299394AC104
:105580008100018E9004C1582CE29110100CC403CC
:105590001C1A10B1583D889991130A1980F7813966
:1055A00088C1B4132F9993816B3BA8A1002089C1B6
:1055B00096B1905988F382381D99A4123E09A1B181
:1055C000385BB0A283908C8104F0314BB9900152CA
:1055D0001FB1840A1A20E1214BA8A881140C0100F4
:1055E000F3885A088AC7032D899291693CA8C201A1
:1055F000100AB196B1804909B0A5232F0CA2936B74
:105600003BB0D30139A9B396800A1902C8136A9A2C
:10561000A983043F99A6901949B8845A89A8A185FD
:10562000098012F1B138289AD6843A1E8091384DFB
:1056300009B081491A88A3B3992A21F194480ABA7A
:10564000C4853A0AB4A21A4AA0827A3A0B0B3829C6
:105650004C39C1F2003989A213498FA08300291067
:10566000D2C08893A29324898F8994A26929A0A883
:105670002B39C0862189E908382A3A13A3AE0C4990
:1056800018492239AF9A02C39387010D0B281828B5
:1056900084C3D81A3918185390F1AA11202B440842
:1056A000F8A90182801581D09C2811185881E2BB8D
:1056B0002012805881C6E80010801002A2EC8812E7
:1056C00080081591EB0A0201193480FA0C380009A0
:1056D0005300C90E2900803222BBCF28300928068A
:1056E00009BD1940292A0591EA1C38282A5000E8EA
:1056F0009B3030093082A1FF0821011A9222BF0A93
:105700004011890321FA8E102209299282EF00307C
:105710009190A4229F2B5A10880048A98F28318984
:10572000084900BE3A78A1A110409C9B03878809D4
:1057300021C0D90043900A2CA5D2092987099A22B1
:10574000109D197008A9192180AC3843A9DA2122CB
:10575000C8F83128BAC004411C8B20A38A1D9305C8
:10576000A9897889A1298A9792BAA52298BA026351
:10577000C9904910C5A80804A089C073B8B62919F2
:10578000A1913DB8177B1C8810090A08A39790D0F7
:1057900083288BB24810C4881B225B2F2B18A2C40D
:1057A000003B390A9D0322D0C5112EA0B5282B81BC
:1057B00092898901408DD0A58391C882A2B4988036
:1057C0009007699BF2035A9BB114480B1C3938AA05
:1057D000BA2317098E9194201F19A2030D09B296BE
:1057E0002B88A7A2895C00B1B915418CAB7981D512
:1057F000082800B89A8622BBD295920A4D39180D16
:105800000802198F2138F1A02180982EB2870A1939
:105810002898E21010012F0B93A2F2485A99F292A5
:1058200011391F80A3801B4980F28082920A0B8766
:1058300091AA505A99B040380C8B94848A0A13C5A7
:10584000C0102180AE93249AAB8497B23E19A3D1A5
:10585000085829BA2912B4E8912308CB7A00C2B0BB
:1058600038418ADA4180F4B122301D9B1293E298CC
:105870000104898C7A80910B0003E3B86910888B4E
:105880000814B2DA4A32A0FA1048D3B13B6890C08B
:10589000185900A9B91485998B1115A9AB7A31E172
:1058A000A84948A0C81841B2C92A23948C1D108564
:1058B000B8994112E8992042C00B4C02C38A3C4877
:1058C00093BB0C34029D8B0307A88C1105A8AA3842
:1058D00032A4BD8826009C8A2333DB8D4012A9CADE
:1058E0000143A2FA0850A1B01A3814C18E102389BE
:1058F0008D1A2204DA0B3214ABAC932690FA1030D6
:10590000B2C8093033BAAF2143A99B3B60229D8CBA
:1059100013428CA90070A1C03A28848AAB206390FE
:10592000FA8013A3B9D88305A1FA1140A8C11900C0
:1059300085901E291188B98822349C8F82140AD937
:10594000815828D9183993880D2A4092BBA907831A
:1059500099AB0035A2FA886108980B1823929F0929
:105960004308C9890115C0B9115398E8001895A0DA
:105970001B280409BB923281EA192194B8B01200A5
:10598000A2E948B1862AA0999140F3820CA323C8CA
:10599000A8893498D02A3350CBC80152B9A1398490
:1059A00011AB092C581E8128985809989C90158392
:1059B0001FA94408D9A830718A893B25A0DA1A2288
:1059C00013AC9A3227999E0814399DA17080B0A813
:1059D0006A80930BA916029C8B4803908FA1261A0C
:1059E000BBD2432AF1004A91D2082AA3031F1A20EE
:1059F000A2C03B3B97101F9884389CD21229B8B3A1
:105A0000385B90B10A4A3004E91C7980F3182CA362
:105A1000A51A2D01921B0E83238D8B0206990B2A4A
:105A200006A28C3B13839F9997220D9902320FA8EF
:105A30008213899C2032B8BC9107229FA014208E2B
:105A4000B103210C9B2241CAD00203A1AC0163091E
:105A5000CCA31438ADB11430ADD222380C0B38229F
:105A6000F8B0021318AF815209CBB423388EA823A3
:105A700030BDD222300C8C2032D9B98387009C10E3
:105A80006009BAA28601AB8061499C9083038B0DAB
:105A900020238C1F8084908B0005802F1B83B2995C
:105AA0008987921C3B30B1F08012B3F8017A19A9B2
:105AB000803091F1A140288B1B6928AAC09484A052
:105AC0008A10140A2F3B01E389A1A7C3005A3A099F
:105AD0001C1901E2B281221A8C29322C1F8984C33D
